S00F000052544F535F48482E73726563DE
S11300000C942A000C9447000C9447000C9447006D
S11300100C9447000C9447000C9447000C949102F4
S11300200C9447000C9447000C9447000C94470030
S11300300C9447000C9447000C9447000C94470020
S11300400C9447000C9447000C9447000C94470010
S11300500C94470011241FBECFE5D8E0DEBFCDBF0E
S113006010E0A0E6B0E0E8E7FCE002C005900D92E5
S1130070A237B107D9F726E0A2E7B0E001C01D928C
S1130080A538B207E1F70E9482000C943A060C945A
S113009000008FEF84BB85BB0895883060F445B3BE
S11300A021E030E0B90102C0660F771F8A95E2F7BC
S11300B0CB01842785BB0895CF93DF9300D0CDB7C0
S11300C0DEB70E941A049A83898380E00E944D005F
S11300D068EE73E0CE0101960E946E05F6CFCF93D1
S11300E0DF9300D0CDB7DEB70E941A049A838983C8
S11300F081E00E944D0068EC70E0CE0101960E9400
S11301006E05F6CF0E944900A12CB12CC12CD12C34
S1130110E12CF12C00E020E030E045E550E062E61F
S113012070E08CE590E00E94FA0220E030E045E5C2
S113013050E067E670E08FE690E00E94FA020E94C9
S1130140E903FFCFFC010396928381832FEF3FEFF6
S113015034832383968385839087878310820895CD
S1130160FC01118610860895CF93DF93FC01DB0117
S113017021813281E9018A819B8113969C938E931C
S113018012978181928115969C938E9314978A81FC
S11301909B81EC017D836C83E9017B836A83728399
S11301A061831996FC93EE93189780818F5F808307
S11301B0DF91CF910895CF93DF93EB01488159816B
S11301C04F3F2FEF520731F4DC011796ED91FC916C
S11301D0189717C0FC013396DC0115962D913C91BC
S11301E01697D9012D913C914217530750F0028084
S11301F0F381E02DA281B3812D913C9142175307E5
S1130200B0F7A281B381BB83AA831596DC93CE9306
S11302101497FD83EC83D383C28399878887FC0179
S113022020812F5F2083DF91CF910895FC01A2816B
S1130230B3818481958115969C938E931497A481A0
S1130240B5818281938113969C938E931297A08596
S1130250B18511968D919C9112978E179F0731F459
S11302608481958112969C938E93119711861086A2
S11302708C9181508C93089531E1FC013083319746
S113028022E220833197A3E3A083319760833197DF
S1130290708331971082319760E8608331971082C0
S11302A0319762E06083319763E06083319764E063
S11302B06083319765E06083319766E060833197AE
S11302C067E06083319768E06083319769E0608319
S11302D0319760E1608331973083319732E1308325
S11302E0319733E13083319734E13083319735E10D
S11302F03083319736E13083319737E1308331975A
S113030038E13083319739E13083319730E23083FB
S1130310319731E2308331972083319723E2208370
S11303203197408331975083319726E22083319768
S113033027E22083319728E22083319729E2208322
S1130340319720E32083319721E320838697089512
S11303501BBC88E38ABD8BE08EBD89B7806189BFF1
S1130360A0918306B0918406CD91CDBFDD91DEBF0F
S1130370FF91EF91DF91CF91BF91AF919F918F91B9
S11303807F916F915F914F913F912F911F910F91A9
S1130390FF90EF90DF90CF90BF90AF909F908F90A1
S11303A07F906F905F904F903F902F901F900F9091
S11303B00FBE0F90089581E008950F920FB6F89440
S11303C00F921F9211242F923F924F925F926F923D
S11303D07F928F929F92AF92BF92CF92DF92EF92D1
S11303E0FF920F931F932F933F934F935F936F93BA
S11303F07F938F939F93AF93BF93CF93DF93EF93A9
S1130400FF93A0918306B09184060DB60D920EB6AB
S11304100D920E94B805A0918306B0918406CD91F7
S1130420CDBFDD91DEBFFF91EF91DF91CF91BF9101
S1130430AF919F918F917F916F915F914F913F9178
S11304402F911F910F91FF90EF90DF90CF90BF906D
S1130450AF909F908F907F906F905F904F903F9060
S11304602F901F900F900FBE0F9008950F920FB60C
S1130470F8940F921F9211242F923F924F925F9201
S11304806F927F928F929F92AF92BF92CF92DF92A0
S1130490EF92FF920F931F932F933F934F935F938A
S11304A06F937F938F939F93AF93BF93CF93DF9378
S11304B0EF93FF93A0918306B09184060DB60D923D
S11304C00EB60D920E9424040E94B805A0918306E2
S11304D0B0918406CD91CDBFDD91DEBFFF91EF9148
S11304E0DF91CF91BF91AF919F918F917F916F9148
S11304F05F914F913F912F911F910F91FF90EF903A
S1130500DF90CF90BF90AF909F908F907F906F902F
S11305105F904F903F902F901F900F900FBE0F90C1
S113052008950E9436021895CF93DF93EC010E9440
S113053014042091720030917300CE01820F931F36
S11305408C3D45E0940758F42817390758F4E9011D
S1130550CC58DF4F909373008093720005C0C0E0C5
S1130560D0E002C0C0E0D0E00E94E804CE01DF91F8
S1130570CF9108950895CAE7D6E088818230E8F3E0
S11305800E94DD01FACFCF93DF93EC01E091830663
S1130590F091840693838283809158069091590642
S11305A0C817D90768F46091830670918406809116
S11305B06406909165066E5F7F4F0E94DB0017C052
S11305C06091830670918406809166069091670617
S11305D06E5F7F4F0E94DB0080916000909161000C
S11305E0C817D90720F4D0936100C0936000DF914D
S11305F0CF9108954F925F926F927F928F929F92C4
S1130600AF92BF92CF92DF92EF92FF920F93CF936C
S1130610DF935C014B013A01290181E290E00E94E1
S11306209402EC01892B09F4A5C0C114D10409F08A
S11306309DC0C3010E949402988F8F8B009721F470
S1130640CE010E94BA0296C0A30165EA70E00E943E
S113065024069301215031098F89988D3C01620E43
S1130660731E48E050E0B401CE0149960E942B0667
S113067018A21E8A6E0182E0C80ED11CC6010E9417
S1130680B000CE010C960E94B000D987C88781E0E3
S113069090E09D878C87DB8BCA8BA201B501C301D7
S11306A00E943C0199838883E114F10419F0F70155
S11306B0D183C0830FB6F8940F9280915A068F5F4E
S11306C080935A068091830690918406892B49F47D
S11306D0D0938406C093830680915A06813081F4B6
S11306E04BC08091550681110BC0E0918306F091B7
S11306F084068689081720F0D0938406C093830665
S11307008E8990915706981710F48093570690910C
S113071050069F5F9093500690915606981710F4D8
S11307208093560690E09C01220F331F220F331F43
S1130730220F331F820F931FB6018658994F0E94D0
S1130740B4000F900FBE80915506882359F0E091B4
S11307508306F09184068689801730F40E94DD01B7
S113076081E027C081E025C081E023C0D88ECF8AF4
S1130770C6016ACF8FEF1DC08AE796E00E94A200EF
S113078081E796E00E94A20088E696E00E94A2001B
S11307908BE596E00E94A20081E796E090936706BD
S11307A08093660688E696E09093650680936406D7
S11307B0A7CFDF91CF910F91FF90EF90DF90CF9073
S11307C0BF90AF909F908F907F906F905F904F906D
S11307D00895AF92BF92CF92DF92EF92FF920F9360
S11307E0A12CB12CC12CD12CE12CF12C00E020E067
S11307F030E045E550E06CE670E08BEB92E00E945F
S1130800FA02813049F4F8948093550610925906FF
S1130810109258060E94A8010F91FF90EF90DF906C
S1130820CF90BF90AF900895809154068F5F8093CE
S1130830540608950FB6F8940F928091580690913B
S113084059060F900FBE08950F931F93CF93DF9314
S1130850809154068111B2C0809158069091590636
S1130860019690935906809358068091580690916A
S11308705906892B99F58091660690916706209117
S1130880640630916506309367062093660690935C
S1130890650680936406809151068F5F80935106AC
S11308A0E0916606F09167068081811107C08FEFA1
S11308B09FEF909361008093600010C0E091660602
S11308C0F09167060580F681E02D0680F781E02D22
S11308D082819381909361008093600020915806F7
S11308E03091590680916000909161002817390772
S11308F008F469C0E0916606F09167068081882358
S113090099F0E0916606F09167060580F681E02D86
S1130910C681D7818A819B812091580630915906DE
S113092028173907F8F419C08FEF9FEF90936100EF
S11309308093600048C0E0916606F09167060580E8
S1130940F681E02DC681D7818A819B81209158064A
S1130950309159062817390728F490936100809341
S1130960600031C08E010E5F1F4FC8010E94160146
S11309708C899D89892B21F0CE010C960E94160149
S11309802E8980915606821710F42093560630E083
S1130990C901880F991F880F991F880F991F820F0B
S11309A0931FB8018658994F0E94B400E0916606DF
S11309B0F091670680818111BECFB6CF8091530636
S11309C08F5F80935306DF91CF911F910F9108950C
S11309D0CF92DF92EF92FF920F931F93CF93DF9307
S11309E00FB6F8940F928091540681508093540668
S11309F080915406811164C080915A06811132C0DD
S1130A0062C0D7011596ED91FC911697C681D781E6
S1130A10CE010C960E9416018E010E5F1F4FC80175
S1130A200E9416012E8980915606821710F4209395
S1130A30560630E0C901880F991F880F991F880F47
S1130A40991F820F931FB8018658994F0E94B400D2
S1130A50E0918306F09184069E898689981758F060
S1130A60DC2C09C0D12C0F2EFBE5EF2EF6E0FF2E77
S1130A70F02DCC24C394F70180818111C2CF8091E1
S1130A805306882381F080915306882399F00E94AD
S1130A902404809153068150809353068091530619
S1130AA08111F5CF07C0F1E0DF1621F080915206E5
S1130AB0813041F4109252060E94DD0181E003C0AE
S1130AC080E001C080E00F900FBEDF91CF911F91B5
S1130AD00F91FF90EF90DF90CF9008950F931F93A5
S1130AE0CF93DF938C01EB010E941404F801208161
S1130AF03181C20FD31F40915806509159064217B5
S1130B00530768F4C217D30750F5809158069091A3
S1130B105906D183C0838C179D07B0F40BC0C2174C
S1130B20D307C8F080915806909159068C179D07F9
S1130B3090F015C0809183069091840602960E94DD
S1130B401601CE010E94C3020E94E80481110BC069
S1130B500E94DD0108C0F801D183C083EBCFF80106
S1130B60D183C083F1CFDF91CF911F910F9108956D
S1130B7080915406811113C08091560690E0FC01C7
S1130B80EE0FFF1FEE0FFF1FEE0FFF1F8E0F9F1FB5
S1130B90FC01E658F94F8081882329F01BC081E0CD
S1130BA0809352060895809156068150809356068C
S1130BB08091560690E0FC01EE0FFF1FEE0FFF1F21
S1130BC0EE0FFF1F8E0F9F1FFC01E658F94F808127
S1130BD0882349F38091560690E09C01220F331F2D
S1130BE0220F331F220F331F280F391FD901A65894
S1130BF0B94F1196ED91FC9112970280F381E02D8B
S1130C001296FC93EE9311972358394FE217F3078A
S1130C1029F422813381FD0132832183FC01EE0F0B
S1130C20FF1FEE0FFF1FEE0FFF1F8E0F9F1FFC0114
S1130C30E658F94F0180F281E02D868197819093E7
S1130C408406809383060895DC0101C06D934150AE
S1130C505040E0F70895FB01DC014150504048F05A
S1130C6001900D920020C9F701C01D9241505040DF
S10B0C70E0F70895F894FFCFAA
S1130C78FFFF4C454431004C4544320049444C453F
S1050C88000066
S9030000FC
