S00F000052544F535F48482E73726563DE
S11300000C942A000C9447000C9447000C9447006D
S11300100C9447000C9447000C9447000C94AE02D7
S11300200C9447000C9447000C9447000C94470030
S11300300C9447000C9447000C9447000C94470020
S11300400C9447000C9447000C9447000C94470010
S11300500C94470011241FBECFE5D8E0DEBFCDBF0E
S113006010E0A0E6B0E0E2EBFCE002C005900D92E7
S1130070A637B107D9F726E0A6E7B0E001C01D9284
S1130080A938B207E1F70E9495000C9457060C9426
S113009000008FEF84BB85BB0895883060F445B3BE
S11300A021E030E0B90102C0660F771F8A95E2F7BC
S11300B0CB01842785BB0895CF93DF9300D0CDB7C0
S11300C0DEB70E9437049A83898380E00E944D0042
S11300D060E273E0CE0101960E948B05F6CFCF93C8
S11300E0DF9300D0CDB7DEB70E9437049A838983AB
S11300F081E00E944D0064EF71E0CE0101960E9400
S11301008B05F6CFCF93DF9300D0CDB7DEB70E9437
S113011037049A83898382E00E944D0068EC70E082
S1130120CE0101960E948B05F6CF0E944900A12CB6
S1130130B12CC12CD12CE12CF12C00E020E030E0DA
S113014045E550E062E670E08CE590E00E9417031C
S113015020E030E045E550E067E670E08FE690E0AF
S11301600E94170320E030E045E550E06CE670E0C3
S113017082E890E00E9417030E940604FFCFFC016E
S11301800396928381832FEF3FEF348323839683F7
S113019085839087878310820895FC0111861086D9
S11301A00895CF93DF93FC01DB0121813281E901C2
S11301B08A819B8113969C938E931297818192815D
S11301C015969C938E9314978A819B81EC017D8371
S11301D06C83E9017B836A83728361831996FC9340
S11301E0EE93189780818F5F8083DF91CF9108957C
S11301F0CF93DF93EB01488159814F3F2FEF520793
S113020031F4DC011796ED91FC91189717C0FC01AD
S11302103396DC0115962D913C911697D9012D91B9
S11302203C914217530750F00280F381E02DA281E4
S1130230B3812D913C9142175307B0F7A281B3814A
S1130240BB83AA831596DC93CE931497FD83EC832A
S1130250D383C28399878887FC0120812F5F208301
S1130260DF91CF910895FC01A281B38184819581AE
S113027015969C938E931497A481B5818281938162
S113028013969C938E931297A085B18511968D91A8
S11302909C9112978E179F0731F484819581129651
S11302A09C938E931197118610868C9181508C9318
S11302B0089531E1FC013083319722E220833197A4
S11302C0A3E3A083319760833197708331971082C1
S11302D0319760E8608331971082319762E06083E0
S11302E0319763E06083319764E06083319765E020
S11302F06083319766E06083319767E0608331976C
S113030068E06083319769E06083319760E16083DE
S113031031973083319732E13083319733E1308341
S1130320319734E13083319735E13083319736E1C9
S11303303083319737E13083319738E13083319717
S113034039E13083319730E23083319731E23083C1
S113035031972083319723E220833197408331976B
S11303605083319726E22083319727E22083319707
S113037028E22083319729E22083319720E32083E8
S1130380319721E32083869708951BBC88E38ABDB7
S11303908BE08EBD89B7806189BFA0918706B0913B
S11303A08806CD91CDBFDD91DEBFFF91EF91DF9146
S11303B0CF91BF91AF919F918F917F916F915F91F9
S11303C04F913F912F911F910F91FF90EF90DF90EC
S11303D0CF90BF90AF909F908F907F906F905F90E1
S11303E04F903F902F901F900F900FBE0F90089545
S11303F081E008950F920FB6F8940F921F92112482
S11304002F923F924F925F926F927F928F929F9220
S1130410AF92BF92CF92DF92EF92FF920F931F930E
S11304202F933F934F935F936F937F938F939F93F8
S1130430AF93BF93CF93DF93EF93FF93A09187067E
S1130440B09188060DB60D920EB60D920E94D50598
S1130450A0918706B0918806CD91CDBFDD91DEBF16
S1130460FF91EF91DF91CF91BF91AF919F918F91C8
S11304707F916F915F914F913F912F911F910F91B8
S1130480FF90EF90DF90CF90BF90AF909F908F90B0
S11304907F906F905F904F903F902F901F900F90A0
S11304A00FBE0F9008950F920FB6F8940F921F92FB
S11304B011242F923F924F925F926F927F928F926C
S11304C09F92AF92BF92CF92DF92EF92FF920F93DF
S11304D01F932F933F934F935F936F937F938F93C8
S11304E09F93AF93BF93CF93DF93EF93FF93A09129
S11304F08706B09188060DB60D920EB60D920E9435
S113050041040E94D505A0918706B0918806CD913B
S1130510CDBFDD91DEBFFF91EF91DF91CF91BF9110
S1130520AF919F918F917F916F915F914F913F9187
S11305302F911F910F91FF90EF90DF90CF90BF907C
S1130540AF909F908F907F906F905F904F903F906F
S11305502F901F900F900FBE0F9008950E9453028A
S11305601895CF93DF93EC010E943104209176001B
S113057030917700CE01820F931F8C3D45E09407A4
S113058058F42817390758F4E901C858DF4F9093F5
S113059077008093760005C0C0E0D0E002C0C0E0E0
S11305A0D0E00E940505CE01DF91CF910895089512
S11305B0CEE7D6E088818230E8F30E94FA01FACFD0
S11305C0CF93DF93EC01E0918706F0918806938343
S11305D0828380915C0690915D06C817D90768F400
S11305E060918706709188068091680690916906EB
S11305F06E5F7F4F0E94F80017C06091870670916C
S1130600880680916A0690916B066E5F7F4F0E9408
S1130610F8008091600090916100C817D90720F418
S1130620D0936100C0936000DF91CF9108954F9201
S11306305F926F927F928F929F92AF92BF92CF926E
S1130640DF92EF92FF920F93CF93DF935C014B0104
S11306503A01290181E290E00E94B102EC01892B68
S113066009F4A5C0C114D10409F09DC0C3010E94BE
S1130670B102988F8F8B009721F4CE010E94D7028C
S113068096C0A30165EA70E00E94410693012150DF
S113069031098F89988D3C01620E731E48E050E049
S11306A0B401CE0149960E94480618A21E8A6E0122
S11306B082E0C80ED11CC6010E94CD00CE010C966A
S11306C00E94CD00D987C88781E090E09D878C8700
S11306D0DB8BCA8BA201B501C3010E945901998326
S11306E08883E114F10419F0F701D183C0830FB6B4
S11306F0F8940F9280915E068F5F80935E068091DE
S1130700870690918806892B49F4D0938806C09374
S1130710870680915E06813081F44BC08091590632
S113072081110BC0E0918706F0918806868908172D
S113073020F0D0938806C09387068E8990915B063B
S1130740981710F480935B06909154069F5F9093E2
S1130750540690915A06981710F480935A0690E024
S11307609C01220F331F220F331F220F331F820FCE
S1130770931FB6018258994F0E94D1000F900FBE6B
S113078080915906882359F0E0918706F0918806F4
S11307908689801730F40E94FA0181E027C081E045
S11307A025C081E023C0D88ECF8AC6016ACF8FEFDF
S11307B01DC08EE796E00E94BF0085E796E00E9488
S11307C0BF008CE696E00E94BF008FE596E00E9491
S11307D0BF0085E796E090936B0680936A068CE6EB
S11307E096E09093690680936806A7CFDF91CF9136
S11307F00F91FF90EF90DF90CF90BF90AF909F90BC
S11308008F907F906F905F904F900895AF92BF92BA
S1130810CF92DF92EF92FF920F93A12CB12CC12CB7
S1130820D12CE12CF12C00E020E030E045E550E053
S113083061E770E088ED92E00E941703813049F48B
S1130840F8948093590610925D0610925C060E94FB
S1130850C5010F91FF90EF90DF90CF90BF90AF90C4
S11308600895809158068F5F8093580608950FB6B7
S1130870F8940F9280915C0690915D060F900FBEE4
S113088008950F931F93CF93DF938091580681119E
S1130890B2C080915C0690915D06019690935D06CE
S11308A080935C0680915C0690915D06892B99F596
S11308B080916A0690916B062091680630916906D2
S11308C030936B0620936A069093690680936806BA
S11308D0809155068F5F80935506E0916A06F091EA
S11308E06B068081811107C08FEF9FEF90936100A9
S11308F08093600010C0E0916A06F0916B06058059
S1130900F681E02D0680F781E02D8281938190931A
S113091061008093600020915C0630915D068091B7
S11309206000909161002817390708F469C0E091CC
S11309306A06F0916B068081882399F0E0916A063B
S1130940F0916B060580F681E02DC681D7818A81FE
S11309509B8120915C0630915D0628173907F8F4D5
S113096019C08FEF9FEF909361008093600048C09F
S1130970E0916A06F0916B060580F681E02DC68150
S1130980D7818A819B8120915C0630915D0628176E
S1130990390728F4909361008093600031C08E0180
S11309A00E5F1F4FC8010E9433018C899D89892BDA
S11309B021F0CE010C960E9433012E8980915A06B3
S11309C0821710F420935A0630E0C901880F991F4A
S11309D0880F991F880F991F820F931FB80182589F
S11309E0994F0E94D100E0916A06F0916B068081D4
S11309F08111BECFB6CF809157068F5F8093570683
S1130A00DF91CF911F910F910895CF92DF92EF92D2
S1130A10FF920F931F93CF93DF930FB6F8940F9227
S1130A208091580681508093580680915806811110
S1130A3064C080915E06811132C062C0D7011596F0
S1130A40ED91FC911697C681D781CE010C960E9438
S1130A5033018E010E5F1F4FC8010E9433012E899E
S1130A6080915A06821710F420935A0630E0C90187
S1130A70880F991F880F991F880F991F820F931F42
S1130A80B8018258994F0E94D100E0918706F091F5
S1130A9088069E898689981758F0DC2C09C0D12CC9
S1130AA00F2EFFE5EF2EF6E0FF2EF02DCC24C3949D
S1130AB0F70180818111C2CF80915706882381F08C
S1130AC080915706882399F00E944104809157062B
S1130AD0815080935706809157068111F5CF07C046
S1130AE0F1E0DF1621F080915606813041F4109236
S1130AF056060E94FA0181E003C080E001C080E054
S1130B000F900FBEDF91CF911F910F91FF90EF9047
S1130B10DF90CF9008950F931F93CF93DF938C01B1
S1130B20EB010E943104F80120813181C20FD31FEF
S1130B3040915C0650915D064217530768F4C21752
S1130B40D30750F580915C0690915D06D183C083F4
S1130B508C179D07B0F40BC0C217D307C8F080915F
S1130B605C0690915D068C179D0790F015C08091EE
S1130B7087069091880602960E943301CE010E9456
S1130B80E0020E94050581110BC00E94FA0108C011
S1130B90F801D183C083EBCFF801D183C083F1CFB7
S1130BA0DF91CF911F910F91089580915806811183
S1130BB013C080915A0690E0FC01EE0FFF1FEE0F68
S1130BC0FF1FEE0FFF1F8E0F9F1FFC01E258F94F0E
S1130BD08081882329F01BC081E080935606089504
S1130BE080915A06815080935A0680915A0690E06B
S1130BF0FC01EE0FFF1FEE0FFF1FEE0FFF1F8E0F06
S1130C009F1FFC01E258F94F8081882349F38091AA
S1130C105A0690E09C01220F331F220F331F220F2C
S1130C20331F280F391FD901A258B94F1196ED91DE
S1130C30FC9112970280F381E02D1296FC93EE93BF
S1130C4011972F57394FE217F30729F42281338183
S1130C50FD0132832183FC01EE0FFF1FEE0FFF1F06
S1130C60EE0FFF1F8E0F9F1FFC01E258F94F01800A
S1130C70F281E02D86819781909388068093870680
S1130C800895DC0101C06D9341505040E0F7089590
S1130C90FB01DC014150504048F001900D920020CE
S1130CA0C9F701C01D9241505040E0F70895F894EF
S1050CB0FFCF70
S1130CB2FFFF4C454431004C454432004C4544331B
S1090CC20049444C45000A
S9030000FC
