S00F000052544F535F48482E73726563DE
S11300000C942A000C9447000C9447000C9447006D
S11300100C9447000C9447000C9447000C94030381
S11300200C9447000C9447000C9447000C94470030
S11300300C9447000C9447000C9447000C94470020
S11300400C9447000C9447000C9447000C94470010
S11300500C94470011241FBECFE5D8E0DEBFCDBF0E
S113006010E0A0E6B0E0E6EDF2E102C005900D92EA
S1130070AE37B107D9F726E0AEE7B0E001C01D9274
S1130080A339B207E1F70E94DE000C9469090C94CD
S113009000008FEF84BB85BB0895883068F445B3B6
S11300A021E030E0B90102C0660F771F8A95E2F7BC
S11300B0CB018095842385BB0895883060F445B3D3
S11300C021E030E0B90102C0660F771F8A95E2F79C
S11300D0CB01842B85BB0895883060F445B321E0BF
S11300E030E0B90102C0660F771F8A95E2F7CB01B1
S11300F0842785BB08951ABA0895883060F499B3AB
S113010021E030E002C0220F331F8A95E2F7892FE5
S113011080958223089580E00895CF93DF9300D0E3
S1130120CDB7DEB70E9477069A83898380E00E9468
S11301306C0060E273E0CE0101960E94CB07F6CF1B
S1130140CF93DF9300D0CDB7DEB70E9477069A83B2
S1130150898381E00E946C0064EF71E0CE01019616
S11301600E94CB07F6CF87E00E947D00882359F0D8
S113017020E040E050E060E070E080917E009091EB
S11301807F000E94D2038AE090E00E941508EBCF22
S113019020E04FEF5FEF60E070E080917E0090918F
S11301A07F000E946C0485E00E944D008AE090E08C
S11301B00E94150885E00E945D00EACF0E94490074
S11301C00E947B00A12CB12CC12CD12CE12CF12C50
S11301D000E020E030E045E550E062E670E08DE8C4
S11301E090E00E94570520E030E045E550E067E6E6
S11301F070E080EA90E00E94570520E030E045E599
S113020050E06CE670E083EB90E00E94570520E03C
S113021030E045E550E063E770E088EC90E00E9450
S113022057050E944606FFCFFC0103969283818303
S11302302FEF3FEF348323839683858390878783CF
S113024010820895FC01118610860895CF93DF93E0
S1130250FC01DB0121813281E9018A819B811396B2
S11302609C938E9312978181928115969C938E9381
S113027014978A819B81EC017D836C83E9017B83E4
S11302806A83728361831996FC93EE931897808135
S11302908F5F8083DF91CF910895CF93DF93EB013C
S11302A0488159814F3F2FEF520731F4DC011796F3
S11302B0ED91FC91189717C0FC013396DC0115965B
S11302C02D913C911697D9012D913C9142175307DA
S11302D050F00280F381E02DA281B3812D913C91F5
S11302E042175307B0F7A281B381BB83AA83159643
S11302F0DC93CE931497FD83EC83D383C2839987D5
S11303008887FC0120812F5F2083DF91CF9108959E
S1130310FC01A281B3818481958115969C938E936F
S11303201497A481B5818281938113969C938E93B3
S11303301297A085B18511968D919C9112978E1775
S11303409F0731F48481958112969C938E93119723
S1130350118610868C9181508C93089531E1FC01B3
S11303603083319722E220833197A3E3A08331972E
S113037060833197708331971082319760E860838E
S113038031971082319762E06083319763E0608334
S1130390319764E06083319765E06083319766E06C
S11303A06083319767E06083319768E060833197B9
S11303B069E06083319760E16083319730833197DE
S11303C032E13083319733E13083319734E1308344
S11303D0319735E13083319736E13083319737E116
S11303E03083319738E13083319739E13083319765
S11303F030E23083319731E2308331972083319773
S113040023E220833197408331975083319726E24A
S11304102083319727E22083319728E22083319784
S113042029E22083319720E32083319721E320833D
S1130430869708951BBC88E38ABD8BE08EBD89B77F
S1130440806189BFA0919106B0919206CD91CDBFF4
S1130450DD91DEBFFF91EF91DF91CF91BF91AF911D
S11304609F918F917F916F915F914F913F912F91C8
S11304701F910F91FF90EF90DF90CF90BF90AF90BE
S11304809F908F907F906F905F904F903F902F90B0
S11304901F900F900FBE0F90089581E008950F9262
S11304A00FB6F8940F921F9211242F923F924F92FD
S11304B05F926F927F928F929F92AF92BF92CF92F0
S11304C0DF92EF92FF920F931F932F933F934F93DB
S11304D05F936F937F938F939F93AF93BF93CF93C8
S11304E0DF93EF93FF93A0919106B09192060DB61E
S11304F00D920EB60D920E943508A0919106B0910E
S11305009206CD91CDBFDD91DEBFFF91EF91DF91DA
S1130510CF91BF91AF919F918F917F916F915F9197
S11305204F913F912F911F910F91FF90EF90DF908A
S1130530CF90BF90AF909F908F907F906F905F907F
S11305404F903F902F901F900F900FBE0F900895E3
S11305500F920FB6F8940F921F9211242F923F928C
S11305604F925F926F927F928F929F92AF92BF92BF
S1130570CF92DF92EF92FF920F931F932F933F93AB
S11305804F935F936F937F938F939F93AF93BF9397
S1130590CF93DF93EF93FF93A0919106B0919206CE
S11305A00DB60D920EB60D920E9481060E9435087A
S11305B0A0919106B0919206CD91CDBFDD91DEBFA1
S11305C0FF91EF91DF91CF91BF91AF919F918F9167
S11305D07F916F915F914F913F912F911F910F9157
S11305E0FF90EF90DF90CF90BF90AF909F908F904F
S11305F07F906F905F904F903F902F901F900F903F
S11306000FBE0F9008950E94A8021895CF93DF9310
S1130610EC010E9471062091800030918100CE018E
S1130620820F931F8C3D45E0940758F4281739072F
S113063058F4E901CE57DF4F9093810080938000F6
S113064005C0C0E0D0E002C0C0E0D0E00E94450791
S1130650CE01DF91CF9108950895CF93DF93EC01FC
S11306608C8D8823A9F1411117C0482F50E08C814B
S11306709D810E944A092C8D8C819D81820F911D40
S11306809D838C832A813B818217930708F188819B
S113069099819D838C831CC0482F50E08E819F815B
S11306A00E944A098C8D90E09195819591092E8143
S11306B03F81280F391F3F832E8348815981241796
S11306C0350730F42A813B81820F931F9F838E83E9
S11306D08A8D8F5F8A8FDF91CF910895FC0180818D
S11306E091810097A1F0448D50E026813781240F39
S11306F0351F37832683A281B3812A173B0710F065
S113070097838683CB01668177810E944A09089585
S11307100F931F93CF93DF93EC010FB6F8940F92CE
S11307208E8D1816B4F48989811105C012C0998977
S1130730911104C00EC08E010F5E1F4FC8010E94AC
S1130740BF0881110E9446099E8D91509E8F1916F3
S113075074F38FEF8E8F0F900FBE0FB6F8940F9235
S11307608D8D1816B4F48885811105C012C0988542
S1130770911104C00EC08E01085F1F4FC8010E9472
S1130780BF0881110E9446099D8D91509D8F1916B5
S113079074F38FEF8D8F0F900FBEDF91CF911F9168
S11307A00F9108959F92AF92BF92CF92DF92EF92F2
S11307B0FF920F931F93CF93DF9300D000D01F922B
S11307C0CDB7DEB78C016B015D834C83922EB12CC7
S11307D0AA24A3947C0188E0E80EF11C0FB6F894D7
S11307E00F92F801328D938D3917A8F4492DB60173
S11307F0C8010E942D03F8018189882341F0C801B2
S113080041960E94BF08813011F40E944F020F905C
S11308100FBE81E050C0EC81FD81EF2B21F40F90DD
S11308200FBE80E048C0B11005C0CE0101960E9401
S11308300409BA2C0F900FBE0E9471060FB6F894EB
S11308400F92F801858D8F3F09F4158EF801868D7E
S11308508F3F09F4168E0F900FBEBE016C5F7F4F61
S1130860CE0101960E940F0981111FC00FB6F894A2
S11308700F92F801928D0F900FBE838D98130FC0C5
S11308806C817D81C7010E94A108C8010E94880370
S11308900E9445078111A2CF0E944F029FCFC80139
S11308A00E9488030E94450799CFC8010E948803CB
S11308B00E94450780E00F900F900F900F900F90CB
S11308C0DF91CF911F910F91FF90EF90DF90CF9028
S11308D0BF90AF909F9008959F92AF92BF92CF9296
S11308E0DF92EF92FF920F931F93CF93DF9300D089
S11308F000D01F92CDB7DEB78C016B015D834C83B2
S1130900922EB12CAA24A3947C0181E1E80EF11C5F
S11309100FB6F8940F92F801928D992349F1E6806D
S1130920F780B601C8010E946E03911010C0F8014F
S1130930828D8150828F80858823B1F0C80108960A
S11309400E94BF08813081F40E944F020DC0F8015B
S1130950F782E6828189882339F0C80141960E9492
S1130960BF0881110E944F020F900FBE81E04FC05B
S11309704C815D81452B21F40F900FBE80E047C070
S1130980B11005C0CE0101960E940409BA2C0F9043
S11309900FBE0E9471060FB6F8940F92F801858D70
S11309A08F3F09F4158EF801968D9F3F09F4168E3A
S11309B00F900FBEBE016C5F7F4FCE0101960E9467
S11309C00F0981111EC00FB6F8940F92F801828DA1
S11309D00F900FBE81110FC06C817D81C7010E94F1
S11309E0A108C8010E9488030E944507811190CF85
S11309F00E944F028DCFC8010E9488030E944507C0
S1130A0087CFC8010E9488030E94450780E00F90A9
S1130A100F900F900F900F90DF91CF911F910F9136
S1130A20FF90EF90DF90CF90BF90AF909F9008958C
S1130A30C8E8D6E088818230E8F30E944F02FACFFA
S1130A40CF93DF93EC01E0919106F09192069383AA
S1130A5082838091660690916706C817D90768F467
S1130A60609191067091920680917206909173063E
S1130A706E5F7F4F0E944D0117C060919106709187
S1130A80920680917406909175066E5F7F4F0E9466
S1130A904D018091600090916100C817D90720F43E
S1130AA0D0936100C0936000DF91CF9108954F927D
S1130AB05F926F927F928F929F92AF92BF92CF92EA
S1130AC0DF92EF92FF920F93CF93DF935C014B0180
S1130AD03A01290181E290E00E940603EC01892B8E
S1130AE009F4A5C0C114D10409F09DC0C3010E943A
S1130AF00603988F8F8B009721F4CE010E942C035C
S1130B0096C0A30165EA70E00E9453099301215045
S1130B1031098F89988D3C01620E731E48E050E0C4
S1130B20B401CE0149960E945A0918A21E8A6E0188
S1130B3082E0C80ED11CC6010E942201CE010C968F
S1130B400E942201D987C88781E090E09D878C8725
S1130B50DB8BCA8BA201B501C3010E94AE0199834C
S1130B608883E114F10419F0F701D183C0830FB62F
S1130B70F8940F92809168068F5F80936806809145
S1130B80910690919206892B49F4D0939206C093D2
S1130B90910680916806813081F44BC08091630690
S1130BA081110BC0E0919106F09192068689081795
S1130BB020F0D0939206C09391068E899091650699
S1130BC0981710F48093650690915E069F5F90934A
S1130BD05E0690916406981710F48093640690E082
S1130BE09C01220F331F220F331F220F331F820F4A
S1130BF0931FB6018857994F0E9426010F900FBE8C
S1130C0080916306882359F0E0919106F091920651
S1130C108689801730F40E944F0281E027C081E06A
S1130C2025C081E023C0D88ECF8AC6016ACF8FEF5A
S1130C301DC088E896E00E9414018FE796E00E94A8
S1130C40140186E796E00E94140189E696E00E946A
S1130C5014018FE796E0909375068093740686E7F7
S1130C6096E09093730680937206A7CFDF91CF919D
S1130C700F91FF90EF90DF90CF90BF90AF909F9037
S1130C808F907F906F905F904F900895AF92BF9236
S1130C90CF92DF92EF92FF920F93A12CB12CC12C33
S1130CA0D12CE12CF12C00E020E030E045E550E0CF
S1130CB069E770E088E195E00E945705813049F4C6
S1130CC0F8948093630610926706109266060E9459
S1130CD01A020F91FF90EF90DF90CF90BF90AF90EA
S1130CE00895809162068F5F8093620608950FB61F
S1130CF0F8940F9280916606909167060F900FBE4C
S1130D0008950F931F93CF93DF938091620681110F
S1130D10B2C080916606909167060196909367062B
S1130D20809366068091660690916706892B99F5F3
S1130D308091740690917506209172063091730625
S1130D40309375062093740690937306809372060D
S1130D5080915F068F5F80935F06E0917406F09147
S1130D6075068081811107C08FEF9FEF909361001A
S1130D708093600010C0E0917406F09175060580C0
S1130D80F681E02D0680F781E02D82819381909396
S1130D90610080936000209166063091670680911F
S1130DA06000909161002817390708F469C0E09148
S1130DB07406F09175068081882399F0E091740699
S1130DC0F09175060580F681E02DC681D7818A8170
S1130DD09B81209166063091670628173907F8F43D
S1130DE019C08FEF9FEF909361008093600048C01B
S1130DF0E0917406F09175060580F681E02DC681B8
S1130E00D7818A819B8120916606309167062817D5
S1130E10390728F4909361008093600031C08E01FB
S1130E200E5F1F4FC8010E9488018C899D89892B00
S1130E3021F0CE010C960E9488012E8980916406CF
S1130E40821710F42093640630E0C901880F991FBB
S1130E50880F991F880F991F820F931FB801885715
S1130E60994F0E942601E0917406F09175068081E5
S1130E708111BECFB6CF809161068F5F80936106EA
S1130E80DF91CF911F910F910895CF92DF92EF924E
S1130E90FF920F931F93CF93DF930FB6F8940F92A3
S1130EA0809162068150809362068091620681116E
S1130EB064C080916806811132C062C0D701159662
S1130EC0ED91FC911697C681D781CE010C960E94B4
S1130ED088018E010E5F1F4FC8010E9488012E8970
S1130EE080916406821710F42093640630E0C901EF
S1130EF0880F991F880F991F880F991F820F931FBE
S1130F00B8018857994F0E942601E0919106F0910B
S1130F1092069E898689981758F0DC2C09C0D12C3A
S1130F200F2EF9E6EF2EF6E0FF2EF02DCC24C3941D
S1130F30F70180818111C2CF80916106882381F0FD
S1130F4080916106882399F00E9481068091610650
S1130F50815080936106809161068111F5CF07C0AD
S1130F60F1E0DF1621F080916006813041F41092A7
S1130F7060060E944F0281E003C080E001C080E06F
S1130F800F900FBEDF91CF911F910F91FF90EF90C3
S1130F90DF90CF9008950F931F93CF93DF938C012D
S1130FA0EB010E947106F80120813181C20FD31F29
S1130FB040916606509167064217530768F4C217BA
S1130FC0D30750F58091660690916706D183C0835C
S1130FD08C179D07B0F40BC0C217D307C8F08091DB
S1130FE06606909167068C179D0790F015C0809156
S1130FF091069091920602960E948801CE010E9469
S113100020050E94450781110BC00E944F0208C0B1
S1131010F801D183C083EBCFF801D183C083F1CF32
S1131020DF91CF911F910F910895CF93DF93EC013E
S1131030892BB1F00E947106809166069091670633
S1131040C80FD91F809191069091920602960E9432
S11310508801CE010E9420050E944507811102C02B
S11310600E944F02DF91CF91089580916206811111
S113107013C08091640690E0FC01EE0FFF1FEE0F99
S1131080FF1FEE0FFF1F8E0F9F1FFC01E857F94F44
S11310908081882329F01BC081E080936006089535
S11310A0809164068150809364068091640690E088
S11310B0FC01EE0FFF1FEE0FFF1FEE0FFF1F8E0F41
S11310C09F1FFC01E857F94F8081882349F38091E1
S11310D0640690E09C01220F331F220F331F220F5E
S11310E0331F280F391FD901A857B94F1196ED9115
S11310F0FC9112970280F381E02D1296FC93EE93FB
S113110011972557394FE217F30729F422813381C8
S1131110FD0132832183FC01EE0FFF1FEE0FFF1F41
S1131120EE0FFF1F8E0F9F1FFC01E857F94F018040
S1131130F281E02D868197819093920680939106A7
S11311400895CF93DF93EB0120919106309192069D
S1131150B901645F7F4F0E944D0180919106909187
S1131160920602960E948801809166069091670615
S11311708C0F9D1F0E942005DF91CF9108950F933E
S11311801F93CF93DF93DC011596ED91FC91169795
S1131190C681D7818E01045F1F4FC8010E94880158
S11311A08091620681111CC00A501109C8010E9475
S11311B088012E8980916406821710F420936406B6
S11311C030E0C901880F991F880F991F880F991F54
S11311D0820F931FB8018857994F0E94260105C0BA
S11311E0B80189E696E00E942601E0919106F0910B
S11311F0920681E02E899689291708F480E0DF9110
S1131200CF911F910F91089520915F06FC012083D7
S11312102091660630916706328321830895FC018C
S11312200FB6F8940F9280915F069081981749F059
S11312308091660690916706218132818217930717
S1131240F8F4809166069091670641815281DB0132
S11312502D913C911197841B950B8217930790F461
S1131260CF01E0916606F0916706BF01641B750B20
S1131270261B370B2D933C930E94040980E003C086
S113128081E001C081E00F900FBE089581E080935A
S113129060060895FB01DC0102C001900D924150EB
S11312A05040D8F70895DC0101C06D93415050407F
S11312B0E0F70895FB01DC014150504048F00190F3
S11312C00D920020C9F701C01D9241505040E0F733
S10912D00895F894FFCF1D
S11312D6FFFF4C454431004C4544320053574954B2
S11112E6434800424C494E4B0049444C4500DD
S9030000FC
