S00E00004848426F6F742E73726563F2
S11300000C942A000C9434000C9434000C943400A6
S11300100C9434000C9434000C9434000C9434008C
S11300200C9434000C9434000C9434000C9434007C
S11300300C9434000C9434000C9434000C9434006C
S11300400C9434000C9434000C9434000C9434005C
S11300500C94340011241FBECFE5D8E0DEBFCDBF21
S11300600E94003C0C9460000C940000823469F0FF
S113007018F4813431F011C0833459F0843481F0A0
S11300800CC08FEF8ABB8BBB08958FEF87BB88BBF7
S113009008958FEF84BB85BB08958FEF84BB85BB28
S11300A00895883060F445B321E030E0B90102C01E
S11300B0660F771F8A95E2F7CB01842785BB0895E5
S10700C0F894FFCFDE
S113780083E490E00E9436000CE010E087E00E94E0
S113781051002FEF8FE392E0215080409040E1F738
S113782000C000000150110989F7F89411241FBE0B
S1137830CFE5D8E0DEBFCDBF0E94083D0F2EF1E1B9
S11378408F2EF02D0F2EF5E09F2EF02D01E0A12CB0
S1137850B12C13E00E94123D813621F489E50E9487
S1137860163DF8CF813469F40E94123DC82F0E945E
S1137870123DD0E0DC2FCC27C82B8DE00E94163DB2
S1137880E9CF853699F4CA2DDB2D07B600FCFDCF70
S1137890FE0110935700E895C058DF4FC115FCE373
S11378A0DF0799F78DE00E94163DD4CF8235A1F40D
S11378B007B600FCFDCF80925700E8956E01CC0C12
S11378C0DD1CF601319684910E94163DF6018491E7
S11378D00E94163D2196BECF833641F40E94123D8C
S11378E0E82EF12C8DE00E94163DB4CF833499F438
S11378F00E94123DF82A07B600FCFDCFFE01EE0FF0
S1137900FF1F070100935700E895112421968DE08D
S11379100E94163D9FCF8D36A9F4CF3FFDE1DF07CE
S113792020F08FE30E94163D09C007B600FCFDCF8E
S1137930FE01EE0FFF1F90925700E8958DE00E9424
S1137940163D88CF803511F08C3421F48DE00E94EF
S1137950163D80CF853469F407B600FCFDCF81E184
S113796080935700E8958DE00E94163D88E081BD24
S1137970FFCF803721F483E50E94163D6BCF843717
S113798039F483E70E94163D80E00E94163D62CFE1
S113799098E8980F923010F0843531F40E94123D2B
S11379A08DE00E94163D56CF8335B1F481E40E94E8
S11379B0163D86E50E94163D82E50E94163D82E44E
S11379C00E94163D8FE40E94163D8FE40E94163DEE
S11379D084E50E94163D3ECF863539F481E30E944A
S11379E0163D85E30E94163D35CF833751F482E07E
S11379F00E94163D85E90E94163D8EE10E94163DC7
S1137A0029CF8B3109F426CF8FE30E94163D22CF74
S1137A1080E28BB988E18AB986E880BD10BC81E038
S1137A2089B908955F9BFECF8CB108955D9BFECF0D
S1077A308CB908956C
S9030000FC
