S00F00006C6162316578322E73726563A6
S11300000C942A000C9434000C9434000C943400A6
S11300100C9434000C9434000C9434000C9434008C
S11300200C9434000C9434000C9434000C9434007C
S11300300C9434000C9434000C9434000C9434006C
S11300400C9434000C9434000C9434000C9434005C
S11300500C94340011241FBECFE5D8E0DEBFCDBF21
S11300600E9436000C9444000C9400008FEF87BB70
S113007088BB2FEF3FE191E0215030409040E1F701
S10F008000C000008150F4CFF894FFCFC2
S9030000FC
