:0C0000000C942B020C9400000C940000E7
:10000C000C9400000C9400000C9400000C94000064
:10001C000C9400000C9400000C9400000C94000054
:10002C000C9400000C9400000C9400000C94000044
:10003C000C9400000C9400000C9400000C94000034
:10004C000C9400000C94000000000000000000C0A4
:10005C0020C0000000000000E020202020C0000094
:10006C00000080402020204000000000E0202020E4
:10007C00408000000000E02020202000000000E074
:10008C002020202000000000804020202040800004
:10009C00000000E000000000E000000000E00000B4
:1000AC000000000000E000000000E00000804020A4
:1000BC0000000000E0000000000000000000000054
:1000CC000000000000000000000000000018060501
:1000DC0004050618000000001F111111110F00007B
:1000EC000000070810101008000000001F1010106E
:1000FC000807000000001F11111111000000001F63
:10010C00010101000000000007081010120A06008F
:10011C000000001F010101011F000000001F000072
:10012C0000000C10100F000000001F0201030C1047
:10013C00000000001F101010100000000000000054
:10014C0000000000000000000000000000F830C0BB
:10015C0000C030F800000000F810608000F80000CB
:10016C000000E01008080810E000000000F8888883
:10017C00887000000000E01008080810E000000083
:10018C0000F84848C84830000000003048488888CB
:10019C0010000000000808F8080800000000F80033
:1001AC00000000F80000000018608000806018005B
:1001BC00000018E000807008708000E0180000005B
:1001CC00000000000000000000000000000700011B
:1001DC0006010007000000000700000102070000F4
:1001EC0000000102040404020100000000070000EA
:1001FC0000000000000001020405050605000000D7
:10020C0000070000000304000000000204040404C2
:10021C0003000000000000070000000000000304C1
:10022C0004040403000000000000010601000000AB
:10023C0000000001060100000001060100000000A2
:10024C000000000000000000000000000002CC30A4
:10025C0030CC0200000000020C10E0100C02000078
:10026C0000000082621A0602000000000804FE0072
:10027C000000000000048242221C000000008402E6
:10028C001212EC00000000605844FE400000000018
:10029C0098161212E200000000FC121212E4000088
:1002AC00000002C2320E0200000000EC121212EC2E
:1002BC00000000009C222222FC0000000000000034
:1002CC000000000000000000000000000001808021
:1002DC008000010000008000000001000000808010
:1002EC00808081010101010100000080008001007B
:1002FC00000000808081010101010000808000016C
:10030C0001810000000000000000810000000000DE
:10031C00000181810000000000000181010000004B
:10032C0000000081000000008000000001010100BD
:10033C0000000000000101010000000000000000AE
:10034C00000000000000000000000000003F4040E2
:10035C00403F000000005F000000007C83394442F5
:10036C00227C46219E00000000721E731E130000AA
:10037C0000002344FF443900000000030444330C04
:10038C003348483000000000040300030400000060
:10039C00304B444C335000000000050305000000B6
:1003AC00007E81000000000000817E000000001033
:1003BC0010100000000008083E08080000000000B3
:1003CC000000000000000000000000000000000021
:1003DC00000000000000000000000000000101010E
:1003EC0001010101000000000000000000000000FD
:1003FC0000000000000000000000000000000000F1
:10040C0000000000000000000000000000000000E0
:10041C0000000000000000000000000000000000D0
:10042C0000000001000000000100000000000000BE
:10043C0000000000000000000000000000000000B0
:10044C0000000000000000000000F894EE27ECBB58
:10045C00F1E0FBBFEBBFE5BFF8E1F1BDE1BD8DE025
:10046C00A2E0BB27ED938A95E9F780E094E0A0E643
:10047C00ED930197E9F7E4E5F4E085919591009708
:10048C0061F0A591B59105901590BF01F001059013
:10049C000D920197E1F7FB01F0CFEFE5EDBFE4E042
:1004AC00EEBFC0E6D1E00C945B020E9409030E94EF
:1004BC001B030E942003EFE3EA93E6E3EA930E9416
:1004CC005303E0E4EA93E7E3EA930E945303E1E485
:1004DC000E948F030E945303E8EEF3E0FA93EA9331
:1004EC000E94D103E7E0EA93EBE00E949303EEE372
:1004FC00EA93E6E1EA93E5E0EA930E947F03E7E002
:10050C00EA93ECE00E949303E7E00E948F03E4E699
:10051C00EA930E947F03E0EDF7E0FA93EA930E94DE
:10052C00D103E4E5F0E0FA93EA930E942703FFCFAE
:10053C00FFCFE8810E949703EFEFE1BBE981E2BBBB
:10054C00DA98EA81E03011F4DE9A01C0DF9A0000FB
:10055C0000000000D99A000000000000000000001C
:10056C00000000000000D9980000DA9ADE98DF98AD
:10057C00E0E0E1BB239608950A93E9810E9497037A
:10058C00DA9AE0E0E1BBEA81E03011F4DE9A01C0D6
:10059C00DF9A000000000000D99A00000000000063
:1005AC000000000000000000000000B30000DE9816
:1005BC00DF98D998E02F088123960895A881A0345C
:1005CC0018F4B5D0E064B7D006C0A881A83018F4F0
:1005DC00AED0E86BB0D0229608951A930A9300E03F
:1005EC00083068F4EA81ACD0AED0E8DF10E010340B
:1005FC0020F4A9D0ADD01F5FFACF0F5FF1CF1981D6
:10060C00088123960895E0E0E1BBEFEFEABBD998AF
:10061C00DE98DF98DA9AD89ADD98E8ECF0E0FA9355
:10062C00EA930E94D103DD9A0895E0E095D0E1E0D1
:10063C0093D00895E0E0EA93D0DFE1E0EA93CDDFD8
:10064C0008951A930A9300E0083028F510E010384A
:10065C0000F5103021F4E0E073D0E0E005C0103478
:10066C0039F4E1E06DD0E1E0EA93E0E0EA93A6DF53
:10067C00103410F4E0E001C0E1E0EA93EB81FC817E
:10068C003196EB83FC833197E491EA9361D01F5F41
:10069C00DECF0F5FD9CF198139C01A930A93AB8182
:1006AC00A03818F4AA81A03408F021C0EA81E770C0
:1006BC00A7E0AE1B0A2FAB81A03448F4E0E04FD08A
:1006CC0056D05CD0E0E05AD01E2F51D008C0E1E0EB
:1006DC0046D059D053D0E1E051D01E2F54D0EA93DC
:1006EC00E02FA1E00E94DD03E12BEA9331D01981C8
:1006FC000DC00A930B81E981AB81EA0F0E1730F420
:10070C000A93EB81EA93C9DF0F5FF5CF088124963A
:10071C000895EA93E8E3EA930895EA93E4E6EA930A
:10072C00E8CF0E94E903ABB3A0F9ABBB0895E98114
:10073C00EA93E9810895EA93E0E0EA930C949F022E
:10074C00EA930A9342CFEA81EA93E0E0EA930895B0
:10075C00E1E0EA930C949F02EA93EFE3ECCFEA9387
:10076C00EB810E94E503A7E0AE1BAA932ECFE0E03D
:10077C00EA93EC81EA9322DFE0E00895EA93E1E06A
:10078C00EA930C94C202E1E0EA93EC81E054EA9320
:10079C0015DFE1E00895E991F991309639F08AE995
:1007AC0093E00197F1F7A8953197C9F70895EE23D7
:1007BC000E2EEA2F19F0EE0F0A94E9F70895E6953C
:1007CC00E695E6950895E8940024E0116894089560
:00000001FF
