S00F000047736D44656D6F2E7372656369
S11300000C942A000C9447000C9447000C9447006D
S11300100C9447000C9447000C9447000C94470040
S11300200C9447000C9447000C9447000C94470030
S11300300C9447000C9449000C9447000C9447001E
S11300400C9447000C9447000C9447000C94470010
S11300500C94470011241FBECFE5D8E0DEBFCDBF0E
S113006010E0A0E6B0E0E2E2F5E002C005900D92F7
S1130070A239B107D9F720E0A2E9B0E001C01D928E
S1130080A73CB207E1F70E947E000C948F020C9407
S113009000001F920F9200905F000F9211242F9383
S11300A08F939F93EF93FF93CF93DF93CDB7DEB7F7
S11300B08CE290E0FC0180818093C60080919200E4
S11300C0909193002091C6008C569F4FFC01208391
S11300D08091920090919300019690939300809365
S11300E09200DF91CF91FF91EF919F918F912F918A
S11300F00F9000925F000F901F901895CF93DF939D
S1130100CDB7DEB72E970FB6F894DEBF0FBECDBFC6
S11301100E940B0178940E94000180E090E0AAEF15
S1130120B4E489839A83AB83BC8326E636E646E649
S113013054E469817A818B819C810E94FA01DC01FB
S1130140CB018D839E83AF83B88720E030E040E805
S11301505FE36D817E818F8198850E94740188237D
S11301602CF481E090E09A8789873FC020E03FEF3C
S11301704FE757E46D817E818F8198850E94F50158
S113018018164CF520E030E040E251E469817A81B0
S11301908B819C810E94FA01DC01CB01BC01CD0161
S11301A00E947901DC01CB019A8789870FC08CE515
S11301B090E09C878B878B859C850197F1F79C87C2
S11301C08B8789859A8501979A87898789859A85F6
S11301D0892B69F714C06D817E818F8198850E9477
S11301E07901DC01CB019A87898789859A859E8765
S11301F08D878D859E850197F1F79E878D878BCF9F
S1130200CF93DF93CDB7DEB784E890E00E943C0142
S1130210DF91CF910895CF93DF9300D000D0CDB775
S1130220DEB79C838B831A8219820DC089819A81DF
S11302302B813C81820F931FFC01108289819A815A
S113024001969A83898389819A81C2977CF389E292
S113025090E027E1FC01208380E490E0FC0110821F
S11302608AE290E028E9FC0120830F900F900F9020
S11302700F90DF91CF910895CF93DF9300D0CDB746
S1130280DEB79A8389830BC089819A81FC018081BE
S11302900E945A0189819A8101969A83898389816E
S11302A09A81FC018081882379F70F900F90DF9168
S11302B0CF910895CF93DF931F92CDB7DEB7898393
S11302C000008BE290E0FC018081882F90E0807236
S11302D09927892BB1F38CE290E02981FC012083DA
S11302E00F90DF91CF9108950E94A80108F481E056
S11302F008950E94D40188F09F5798F0B92F992748
S1130300B751B0F0E1F0660F771F881F991F1AF0FC
S1130310BA95C9F714C0B13091F00E94EE01B1E072
S113032008950C94EE01672F782F8827B85F39F071
S1130330B93FCCF3869577956795B395D9F73EF495
S113034090958095709561957F4F8F4F9F4F08953D
S1130350990F0008550FAA0BE0E8FEEF16161706D2
S1130360E807F907C0F012161306E407F50798F03A
S1130370621B730B840B950B39F40A2661F0232B53
S1130380242B252B21F408950A2609F4A140A695CF
S11303908FEF811D811D089557FD9058440F551FFF
S11303A059F05F3F71F04795880F97FB991F61F0F3
S11303B09F3F79F087950895121613061406551F6A
S11303C0F2CF4695F1DF08C0161617061806991FD6
S11303D0F1CF86957105610508940895E894BB27CB
S11303E066277727CB0197F908950E94A80108F49E
S11303F08FEF08950E940D020C947E020E947002F9
S113040038F00E94770220F0952311F00C946702D3
S11304100C946D0211240C94EF010E94CC0170F332
S1130420959FC1F3950F50E0551F629FF001729F95
S1130430BB27F00DB11D639FAA27F00DB11DAA1FA4
S1130440649F6627B00DA11D661F829F2227B00DF1
S1130450A11D621F739FB00DA11D621F839FA00D7C
S1130460611D221F749F3327A00D611D231F849FCC
S1130470600D211D822F762F6A2F11249F57504023
S11304809AF0F1F088234AF0EE0FFF1FBB1F661F9E
S1130490771F881F91505040A9F79E3F510580F067
S11304A00C9467020C94EF015F3FE4F3983ED4F39D
S11304B0869577956795B795F795E7959F5FC1F70B
S11304C0FE2B880F911D9695879597F9089597F9B6
S11304D09F6780E870E060E008959FEF80EC0895E6
S11304E000240A941616170618060906089500240F
S11304F00A9412161306140605060895092E039489
S1130500000C11F4882352F0BB0F40F4BF2B11F4FC
S113051060FF04C06F5F7F4F8F4F9F4F0895F89423
S1050520FFCF07
S113052241542B434D47463D31000D0A0041544589
S1130532310D0A00415445300D0A0041542B434DFC
S113054247533D0041542B434D474C3D414C4C0DC8
S10505520A0099
S9030000FC
