S00F000047736D44656D6F2E7372656369
S11300000C942A000C943F000C943F000C943F0085
S11300100C943F000C943F000C943F000C943F0060
S11300200C943F000C943F000C943F000C943F0050
S11300300C943F000C943F000C943F000C943F0040
S11300400C943F000C943F000C943F000C943F0030
S11300500C943F0011241FBECFE5D8E0DEBFCDBF16
S113006010E0A0E6B0E0E0E5F2E002C005900D92F9
S1130070A63AB107D9F70E945C000C9426010C94AF
S11300800000823469F018F4813431F011C08334F3
S113009059F0843481F00CC08FEF8ABB8BBB089578
S11300A08FEF87BB88BB08958FEF84BB85BB089512
S11300B08FEF84BB85BB0895CF93DF93CDB7DEB7B5
S11300C0ED970FB6F894DEBF0FBECDBF48E060E8F1
S11300D075E280E090E00E94B4000E94410083E158
S11300E0E0E6F0E0DE01119601900D928A95E1F7C9
S11300F0FE0174968FE1DF011D928A95E9F789E08C
S1130100E2E9F0E0DE01D39601900D928A95E1F7E1
S11301101DAE1CAEBE016D5C7F4FCE0101960E94E8
S11301209B00BFEF2FE388E3B15020408040E1F70C
S113013000C00000EFCF0F931F93CF93DF93EC0128
S11301408B018DE990E00E94F500C8010E94F50042
S1130150CE010E94F5008AE190E00E94F100DF9157
S1130160CF911F910F9108950F931F938B019C01C1
S11301700E561109210931090339114C2140310569
S113018068F52BEF240F243048F520E22BB928E141
S11301902AB950E045505109440F551F406840BDED
S11301A0DC01CB01880F991FAA1FBB1F880F991F61
S11301B0AA1FBB1F9C01AD01220F331F441F551FF3
S11301C0220F331F441F551F60E070E488E390E062
S11301D00E9404012150310930BD29B91F910F91AA
S11301E008955D9BFECF8CB90895CF93DF93EC0106
S11301F08881882331F021960E94F1008991811130
S1130200FBCFDF91CF910895A1E21A2EAA1BBB1B4D
S1130210FD010DC0AA1FBB1FEE1FFF1FA217B307CE
S1130220E407F50720F0A21BB30BE40BF50B661FE4
S1130230771F881F991F1A9469F7609570958095A8
S113024090959B01AC01BD01CF010895F894FFCFB7
S1130250546869732069732061206D6573736167E5
S11302606520000000000000000000000000000005
S1130270000000000000000000000000000000007A
S11302800000313131313131313100000041542B22
S1090290434D47533D00FD
S9030000FC
