S00F000047736D44656D6F2E7372656369
S11300000C942A000C943F000C943F000C943F0085
S11300100C943F000C943F000C943F000C943F0060
S11300200C943F000C943F000C943F000C943F0050
S11300300C943F000C943F000C943F000C943F0040
S11300400C943F000C943F000C943F000C943F0030
S11300500C943F0011241FBECFE5D8E0DEBFCDBF16
S113006010E0A0E6B0E0E4E5FAE002C005900D92ED
S1130070AA38B107D9F70E94B0000C9428050C9453
S11300800000CF93DF931F92CDB7DEB789838981B8
S1130090882F90E082349105C9F08334910524F4CB
S11300A08134910541F028C083349105D1F0843422
S11300B0910571F121C08AE390E02FEFFC012083C8
S11300C08BE390E02FEFFC01208323C087E390E0D3
S11300D02FEFFC01208388E390E02FEFFC012083C5
S11300E018C084E390E02FEFFC01208385E390E0C7
S11300F02FEFFC0120830DC084E390E02FEFFC017F
S1130100208385E390E02FEFFC012083000001C0F1
S113011000000F90DF91CF910895CF93DF9300D02B
S1130120CDB7DEB78A838A818830A8F48A81282FE4
S113013030E081E090E002C0880F991F2A95E2F731
S1130140898385E390E025E330E0F901308129815A
S11301502327FC0120830F900F90DF91CF91089506
S1130160CF93DF93CDB7DEB7A2970FB6F894DEBF77
S11301700FBECDBF48E060E875E280E090E00E94E9
S1130180230261E082E40E94E9010E944100CE0161
S11301900F960E94410187E00E948D0080E090E06C
S11301A0AAEFB3E489839A83AB83BC8326E636E65D
S11301B046E654E469817A818B819C810E947104B2
S11301C0DC01CB018D839E83AF83B88720E030E0D0
S11301D040E85FE36D817E818F8198850E94EB0307
S11301E088232CF481E090E09A8789873FC020E03F
S11301F03FEF4FE757E46D817E818F8198850E94A0
S11302006C0418164CF520E030E040E251E46981BA
S11302107A818B819C810E947104DC01CB01BC0139
S1130220CD010E94F003DC01CB019A8789870FC0BE
S11302308CE590E09C878B878B859C850197F1F7F3
S11302409C878B8789859A8501979A878987898571
S11302509A85892B69F714C06D817E818F81988579
S11302600E94F003DC01CB019A87898789859A85EE
S11302709E878D878D859E850197F1F79E878D8753
S11302808ACFCF93DF93CDB7DEB763970FB6F894D9
S1130290DEBF0FBECDBF9B8B8A8B1A82198280E68C
S11302A090E00E9451038AE690E00E94510383C0CB
S11302B080E090E0A8E4B2E48C839D83AE83BF83A6
S11302C020E030E04AE753E46C817D818E819F8198
S11302D00E947104DC01CB0188879987AA87BB87B8
S11302E020E030E040E85FE3688579858A859B8576
S11302F00E94EB0388232CF481E090E09D878C8797
S11303003FC020E03FEF4FE757E4688579858A8551
S11303109B850E946C0418164CF520E030E040E206
S113032051E46C817D818E819F810E947104DC0186
S1130330CB01BC01CD010E94F003DC01CB019D8700
S11303408C870FC089E190E09F878E878E859F857B
S11303500197F1F79F878E878C859D8501979D87EF
S11303608C878C859D85892B69F714C06885798570
S11303708A859B850E94F003DC01CB019D878C87D5
S11303808C859D85998B888B888999890197F1F74C
S1130390998B888B0E94A9028B832A893B89898146
S11303A09A81820F931F2B81FC01208389819A817A
S11303B001969A8389830E949D02892B09F078CF44
S11303C063960FB6F894DEBF0FBECDBFDF91CF9119
S11303D00895CF93DF9300D0CDB7DEB789836A83C6
S11303E08981882F90E082349105A1F083349105AE
S11303F024F48134910541F019C08334910581F0CE
S113040084349105D1F012C08AE390E02A81FC0182
S1130410208314C087E390E02A81FC0120830EC06E
S113042084E390E02A81FC01208308C087E390E004
S11304302A81FC012083000001C000000F900F906E
S1130440DF91CF910895CF93DF93CDB7DEB72B978C
S11304500FB6F894DEBF0FBECDBF6B837C838D8354
S11304609E834F838B819C81AD81BE818E369105A5
S1130470A105B10508F458C08B819C81AD81BE8172
S11304808130924CA140B10508F04EC08F81853077
S113049008F44AC08F81893008F046C08BE290E0AE
S11304A020E2FC0120838AE290E028E1FC01208321
S11304B080E490E02F81222F30E025503109220F73
S11304C0331F2068FC0120838B819C81AD81BE8118
S11304D0880F991FAA1FBB1F880F991FAA1FBB1F34
S11304E0880F991FAA1FBB1F880F991FAA1FBB1F24
S11304F09C01AD0180E090E4A8E3B0E0BC01CD0133
S11305000E940605DA01C90101979A83898380E470
S113051090E029813A81232F3327FC01208389E24B
S113052090E02981FC0120832B960FB6F894DEBF5E
S11305300FBECDBFDF91CF910895CF93DF93CDB799
S1130540DEB78BE290E0FC0180818078DF91CF916F
S11305500895CF93DF93CDB7DEB700008BE290E030
S1130560FC0180818823D4F78CE290E0FC01808137
S1130570DF91CF910895CF93DF93CDB7DEB72F9757
S11305800FB6F894DEBF0FBECDBF8F8780E090E03A
S1130590A8E4B2E489839A83AB83BC8326E636E677
S11305A046E654E469817A818B819C810E947104BE
S11305B0DC01CB018D839E83AF83B88720E030E0DC
S11305C040E85FE36D817E818F8198850E94EB0313
S11305D088232CF481E090E09A8789873FC020E04B
S11305E03FEF4FE757E46D817E818F8198850E94AC
S11305F06C0418164CF520E030E040E251E46981C7
S11306007A818B819C810E947104DC01CB01BC0145
S1130610CD010E94F003DC01CB019A8789870FC0CA
S11306208CE590E09C878B878B859C850197F1F7FF
S11306309C878B8789859A8501979A87898789857D
S11306409A85892B69F714C06D817E818F81988585
S11306500E94F003DC01CB019A87898789859A85FA
S11306609E878D878D859E850197F1F79E878D875F
S113067000008BE290E0FC018081882F90E0807282
S11306809927892BB1F38CE290E02F85FC0120831C
S11306902F960FB6F894DEBF0FBECDBFDF91CF917A
S11306A00895CF93DF93CDB7DEB760970FB6F89474
S11306B0DEBF0FBECDBF988B8F877DC08F85988995
S11306C0FC0180810E94BB028F8598890196988BDA
S11306D08F8780E090E0A8E4B2E489839A83AB83B7
S11306E0BC8326E636E646E654E469817A818B814A
S11306F09C810E947104DC01CB018D839E83AF83B6
S1130700B88720E030E040E85FE36D817E818F812F
S113071098850E94EB0388232CF481E090E09A876B
S113072089873FC020E03FEF4FE757E46D817E812A
S11307308F8198850E946C0418164CF520E030E0F7
S113074040E251E469817A818B819C810E94710429
S1130750DC01CB01BC01CD010E94F003DC01CB0123
S11307609A8789870FC08CE590E09C878B878B855F
S11307709C850197F1F79C878B8789859A850197DA
S11307809A87898789859A85892B69F714C06D8131
S11307907E818F8198850E94F003DC01CB019A87CA
S11307A0898789859A859E878D878D859E85019702
S11307B0F1F79E878D878F859889FC018081882336
S11307C009F07CCF60960FB6F894DEBF0FBECDBFA4
S11307D0DF91CF9108950E941F0408F481E00895E9
S11307E00E944B0488F09F5798F0B92F9927B7516E
S11307F0B0F0E1F0660F771F881F991F1AF0BA95C1
S1130800C9F714C0B13091F00E946504B1E00895B5
S11308100C946504672F782F8827B85F39F0B93FA7
S1130820CCF3869577956795B395D9F73EF4909573
S11308308095709561957F4F8F4F9F4F0895990FC5
S11308400008550FAA0BE0E8FEEF16161706E80796
S1130850F907C0F012161306E407F50798F0621BB7
S1130860730B840B950B39F40A2661F0232B242B8C
S1130870252B21F408950A2609F4A140A6958FEFAB
S1130880811D811D089557FD9058440F551F59F03F
S11308905F3F71F04795880F97FB991F61F09F3F69
S11308A079F087950895121613061406551FF2CF92
S11308B04695F1DF08C0161617061806991FF1CFE2
S11308C086957105610508940895E894BB27662709
S11308D07727CB0197F908950E941F0408F48FEF3E
S11308E008950E9484040C94F5040E94E70438F0EF
S11308F00E94EE0420F0952311F00C94DE040C9475
S1130900E40411240C9466040E94430470F3959F3C
S1130910C1F3950F50E0551F629FF001729FBB27F2
S1130920F00DB11D639FAA27F00DB11DAA1F649F8E
S11309306627B00DA11D661F829F2227B00DA11D41
S1130940621F739FB00DA11D621F839FA00D611DC7
S1130950221F749F3327A00D611D231F849F600DE8
S1130960211D822F762F6A2F11249F5750409AF011
S1130970F1F088234AF0EE0FFF1FBB1F661F771F9D
S1130980881F91505040A9F79E3F510580F00C9468
S1130990DE040C9466045F3FE4F3983ED4F386953A
S11309A077956795B795F795E7959F5FC1F7FE2B08
S11309B0880F911D9695879597F9089597F99F67E4
S11309C080E870E060E008959FEF80EC08950024D3
S11309D00A941616170618060906089500240A94A0
S11309E012161306140605060895092E0394000C26
S11309F011F4882352F0BB0F40F4BF2B11F460FFB5
S1130A0004C06F5F7F4F8F4F9F4F0895A1E21A2E4E
S1130A10AA1BBB1BFD010DC0AA1FBB1FEE1FFF1F9E
S1130A20A217B307E407F50720F0A21BB30BE40BEE
S1130A30F50B661F771F881F991F1A9469F7609535
S1130A407095809590959B01AC01BD01CF010895EF
S1070A50F894FFCF44
S1130A5441542B434D47463D31000D0A0041544552
S1130A643100415445300041542B434D47533D001C
S10D0A7441542B434D474C3D310023
S9030000FC
