S00F000047736D44656D6F2E7372656369
S11300000C942A000C9447000C9447000C9447006D
S11300100C9447000C9447000C9447000C94470040
S11300200C9447000C9447000C9447000C94470030
S11300300C9447000C9449000C9447000C9447001E
S11300400C9447000C9447000C9447000C94470010
S11300500C94470011241FBECFE5D8E0DEBFCDBF0E
S113006010E0A0E6B0E0E0E4F5E002C005900D92F7
S1130070AA39B107D9F720E0AAE9B0E001C01D927E
S1130080AE3CB207E1F70E947E000C949E020C94F1
S113009000001F920F9200905F000F9211242F9383
S11300A08F939F93EF93FF93CF93DF931F92CDB7DB
S11300B0DEB78CE290E0FC018081898380919A0014
S11300C090919B0084569F4F2981FC01208380914D
S11300D09A0090919B00019690939B0080939A00C4
S11300E00F90DF91CF91FF91EF919F918F912F917D
S11300F00F9000925F000F901F901895CF93DF939D
S1130100CDB7DEB72E970FB6F894DEBF0FBECDBFC6
S11301100E941A01789480E690E00E94020180E037
S113012090E0AAE7B4E489839A83AB83BC8326E690
S113013036E646E654E469817A818B819C810E948B
S11301400902DC01CB018D839E83AF83B88720E055
S113015030E040E85FE36D817E818F8198850E9465
S1130160830188232CF481E090E09A8789873FC03B
S113017020E03FEF4FE757E46D817E818F819885C2
S11301800E94040218164CF520E030E040E251E4ED
S113019069817A818B819C810E940902DC01CB01F7
S11301A0BC01CD010E948801DC01CB019A878987BB
S11301B00FC08CE590E09C878B878B859C8501978D
S11301C0F1F79C878B8789859A8501979A87898718
S11301D089859A85892B69F714C06D817E818F8109
S11301E098850E948801DC01CB019A8789878985DB
S11301F09A859E878D878D859E850197F1F79E87C9
S11302008D878DCFCF93DF9300D0CDB7DEB79A83A0
S1130210898385E690E00E944B0189819A810E943E
S11302204B018EE690E00E944B010F900F90DF91FE
S1130230CF910895CF93DF9300D000D0CDB7DEB730
S11302409C838B831A8219820DC089819A812B81A8
S11302503C81820F931FFC01108289819A8101964F
S11302609A83898389819A81C2977CF389E290E099
S113027027E1FC01208380E490E0FC0110828AE203
S113028090E028E9FC0120830F900F900F900F90CD
S1130290DF91CF910895CF93DF9300D0CDB7DEB730
S11302A09A8389830BC089819A81FC0180810E9491
S11302B0690189819A8101969A83898389819A81C6
S11302C0FC018081882379F70F900F90DF91CF9103
S11302D00895CF93DF931F92CDB7DEB789830000D3
S11302E08BE290E0FC018081882F90E08072992756
S11302F0892BB1F38CE290E02981FC0120830F90DB
S1130300DF91CF9108950E94B70108F481E0089528
S11303100E94E30188F09F5798F0B92F9927B751AD
S1130320B0F0E1F0660F771F881F991F1AF0BA9595
S1130330C9F714C0B13091F00E94FD01B1E00895F5
S11303400C94FD01672F782F8827B85F39F0B93FE7
S1130350CCF3869577956795B395D9F73EF4909548
S11303608095709561957F4F8F4F9F4F0895990F9A
S11303700008550FAA0BE0E8FEEF16161706E8076B
S1130380F907C0F012161306E407F50798F0621B8C
S1130390730B840B950B39F40A2661F0232B242B61
S11303A0252B21F408950A2609F4A140A6958FEF80
S11303B0811D811D089557FD9058440F551F59F014
S11303C05F3F71F04795880F97FB991F61F09F3F3E
S11303D079F087950895121613061406551FF2CF67
S11303E04695F1DF08C0161617061806991FF1CFB7
S11303F086957105610508940895E894BB276627DE
S11304007727CB0197F908950E94B70108F48FEF7D
S113041008950E941C020C948D020E947F0238F001
S11304200E94860220F0952311F00C9476020C941D
S11304307C0211240C94FE010E94DB0170F3959F51
S1130440C1F3950F50E0551F629FF001729FBB27C7
S1130450F00DB11D639FAA27F00DB11DAA1F649F63
S11304606627B00DA11D661F829F2227B00DA11D16
S1130470621F739FB00DA11D621F839FA00D611D9C
S1130480221F749F3327A00D611D231F849F600DBD
S1130490211D822F762F6A2F11249F5750409AF0E6
S11304A0F1F088234AF0EE0FFF1FBB1F661F771F72
S11304B0881F91505040A9F79E3F510580F00C943D
S11304C076020C94FE015F3FE4F3983ED4F38695E4
S11304D077956795B795F795E7959F5FC1F7FE2BDD
S11304E0880F911D9695879597F9089597F99F67B9
S11304F080E870E060E008959FEF80EC08950024A8
S11305000A941616170618060906089500240A9474
S113051012161306140605060895092E0394000CFA
S113052011F4882352F0BB0F40F4BF2B11F460FF89
S113053004C06F5F7F4F8F4F9F4F0895F894FFCF94
S1130540383139350041542B4350494E3D000D0A92
S11305500041542B434D47463D3100415445310041
S1130560415445300041542B434D47533D004154C1
S10D05702B434D474C3D414C4C0019
S9030000FC
