S00F000047736D44656D6F2E7372656369
S11300000C942A000C9447000C9447000C9447006D
S11300100C9447000C9447000C9447000C94470040
S11300200C9447000C9447000C9447000C94470030
S11300300C9447000C9470000C9447000C944700F7
S11300400C9447000C9447000C9447000C94470010
S11300500C94470011241FBECFE5D8E0DEBFCDBF0E
S113006010E0A0E6B0E0ECE9F5E002C005900D92E6
S1130070A439B107D9F720E0A4E9B0E001C01D928A
S1130080A93CB207E1F70E94B7000C94CC020C948F
S11300900000CF93DF9300D000D0CDB7DEB79C83B0
S11300A08B831A82198211C02B813C8189819A81A8
S11300B0820F931FFC0110821092950010929400FD
S11300C089819A8101969A83898389819A81C297C9
S11300D058F30F900F900F900F90DF91CF910895E8
S11300E01F920F9200905F000F9211242F933F9361
S11300F04F935F936F937F938F939F93AF93BF932C
S1130100EF93FF93CF93DF93CDB7DEB786E990E00B
S11301100E9449008CE290E0FC0180818093C80039
S113012080919400909195002091C8008A569F4F29
S1130130FC01208380919400909195000196909306
S1130140950080939400DF91CF91FF91EF91BF913F
S1130150AF919F918F917F916F915F914F913F915B
S11301602F910F9000925F000F901F901895CF93DE
S1130170DF93CDB7DEB72E970FB6F894DEBF0FBE70
S1130180CDBF0E94480178940E94390180E090E03C
S1130190AAEFB4E489839A83AB83BC8326E636E66C
S11301A046E654E469817A818B819C810E943702FE
S11301B0DC01CB018D839E83AF83B88720E030E0E0
S11301C040E85FE36D817E818F8198850E94B10153
S11301D088232CF481E090E09A8789873FC020E04F
S11301E03FEF4FE757E46D817E818F8198850E94B0
S11301F0320218164CF520E030E040E251E4698107
S11302007A818B819C810E943702DC01CB01BC0185
S1130210CD010E94B601DC01CB019A8789870FC00A
S11302208CE590E09C878B878B859C850197F1F703
S11302309C878B8789859A8501979A878987898581
S11302409A85892B69F714C06D817E818F81988589
S11302500E94B601DC01CB019A87898789859A853A
S11302609E878D878D859E850197F1F79E878D8763
S11302708BCFCF93DF93CDB7DEB788E890E00E94B1
S113028079018AE690E00E947901DF91CF91089587
S1130290CF93DF9300D000D0CDB7DEB79C838B83A0
S11302A01A8219820DC089819A812B813C81820F27
S11302B0931FFC01108289819A8101969A83898314
S11302C089819A81C2977CF389E290E027E1FC015D
S11302D0208380E490E0FC0110828AE290E028E927
S11302E0FC0120830F900F900F900F90DF91CF911E
S11302F00895CF93DF9300D0CDB7DEB79A83898377
S11303000BC089819A81FC0180810E9497018981B7
S11303109A8101969A83898389819A81FC018081DB
S1130320882379F70F900F90DF91CF910895CF93A1
S1130330DF931F92CDB7DEB7898300008BE290E094
S1130340FC018081882F90E080729927892BB1F37A
S11303508CE290E02981FC0120830F90DF91CF9102
S113036008950E94E50108F481E008950E941102B5
S113037088F09F5798F0B92F9927B751B0F0E1F062
S1130380660F771F881F991F1AF0BA95C9F714C012
S1130390B13091F00E942B02B1E008950C942B022D
S11303A0672F782F8827B85F39F0B93FCCF386954B
S11303B077956795B395D9F73EF4909580957095A8
S11303C061957F4F8F4F9F4F0895990F0008550FE8
S11303D0AA0BE0E8FEEF16161706E807F907C0F0C7
S11303E012161306E407F50798F0621B730B840BCF
S11303F0950B39F40A2661F0232B242B252B21F4A9
S113040008950A2609F4A140A6958FEF811D811D48
S1130410089557FD9058440F551F59F05F3F71F0F0
S11304204795880F97FB991F61F09F3F79F0879557
S11304300895121613061406551FF2CF4695F1DFE0
S113044008C0161617061806991FF1CF8695710570
S1130450610508940895E894BB2766277727CB01A4
S113046097F908950E94E50108F48FEF08950E941A
S11304704A020C94BB020E94AD0238F00E94B402FE
S113048020F0952311F00C94A4020C94AA021124D8
S11304900C942C020E94090270F3959FC1F3950FEE
S11304A050E0551F629FF001729FBB27F00DB11DF4
S11304B0639FAA27F00DB11DAA1F649F6627B00D84
S11304C0A11D661F829F2227B00DA11D621F739F6D
S11304D0B00DA11D621F839FA00D611D221F749F7B
S11304E03327A00D611D231F849F600D211D822FC2
S11304F0762F6A2F11249F5750409AF0F1F08823E9
S11305004AF0EE0FFF1FBB1F661F771F881F915015
S11305105040A9F79E3F510580F00C94A4020C941E
S11305202C025F3FE4F3983ED4F386957795679564
S1130530B795F795E7959F5FC1F7FE2B880F911D3F
S11305409695879597F9089597F99F6780E870E0E5
S113055060E008959FEF80EC089500240A94161635
S1130560170618060906089500240A94121613069D
S1130570140605060895092E0394000C11F488232B
S113058052F0BB0F40F4BF2B11F460FF04C06F5F47
S10F05907F4F8F4F9F4F0895F894FFCFCA
S113059C41542B434D47463D31000D0041544531E8
S11305AC00415445300041542B434D47533D0041C9
S11305BC542B4350494E3D0041542B434D474C3D25
S10705CC414C4C004E
S9030000FC
