S00F000047736D44656D6F2E7372656369
S11300000C942A000C943F000C943F000C943F0085
S11300100C943F000C943F000C943F000C943F0060
S11300200C943F000C943F000C943F000C943F0050
S11300300C943F000C943F000C943F000C943F0040
S11300400C943F000C943F000C943F000C943F0030
S11300500C943F0011241FBECFE5D8E0DEBFCDBF16
S113006010E0A0E6B0E0ECE1F2E002C005900D92F1
S1130070A83AB107D9F70E945D000C940C010C94C6
S113008000008FEF84BB85BB08950F931F93CF931C
S1130090DF93EC018B018EE990E00E94DB00C80144
S11300A00E94DB00CE010E94DB008AE10E94D7009F
S11300B0DF91CF911F910F910895CF93DF93CDB727
S11300C0DEB7ED970FB6F894DEBF0FBECDBF48E0A4
S11300D060E875E280E090E00E949A000E9441008E
S11300E08AE0E0E6F0E0DE01119601900D928A9537
S11300F0E1F7FE013B9688E2DF011D928A95E9F75C
S11301008BE0E2E9F0E0DE01D39601900D928A954E
S1130110E1F7BE016D5C7F4FCE0101960E94450060
S1130120BFEF2FE388E3B15020408040E1F700C0E7
S11301300000EFCF0F931F938B019C010E56110902
S1130140210931090339114C2140310568F52BEFA0
S1130150240F243048F520E22BB928E12AB950E0D5
S113016045505109440F551F406840BDDC01CB0187
S1130170880F991FAA1FBB1F880F991FAA1FBB1F97
S11301809C01AD01220F331F441F551F220F331F43
S1130190441F551F60E070E488E390E00E94EA0089
S11301A02150310930BD29B91F910F9108955D9BEC
S11301B0FECF8CB90895CF93DF93EC018881882317
S11301C031F021960E94D70089918111FBCFDF91F4
S11301D0CF910895A1E21A2EAA1BBB1BFD010DC0ED
S11301E0AA1FBB1FEE1FFF1FA217B307E407F507E3
S11301F020F0A21BB30BE40BF50B661F771F881FBF
S1130200991F1A9469F760957095809590959B0154
S10F0210AC01BD01CF010895F894FFCFAC
S113021C48456C6C6F65656530000000000000009B
S113022C00000000000000000000000000000000BE
S113023C00000000000000000000000000000000AE
S113024C00002B34353631343233343032004154DF
S10B025C2B434D47533D000004
S9030000FC
