S00F000047736D44656D6F2E7372656369
S11300000C942A000C943F000C943F000C943F0085
S11300100C943F000C943F000C943F000C943F0060
S11300200C943F000C943F000C943F000C943F0050
S11300300C943F000C943F000C943F000C943F0040
S11300400C943F000C943F000C943F000C943F0030
S11300500C943F0011241FBECFE5D8E0DEBFCDBF16
S113006010E0A0E6B0E0E2E2FDE002C005900D92EF
S1130070A839B107D9F70E94B0000C948F060C94EC
S11300800000CF93DF931F92CDB7DEB789838981B8
S1130090882F90E082349105C9F08334910524F4CB
S11300A08134910541F028C083349105D1F0843422
S11300B0910571F121C08AE390E02FEFFC012083C8
S11300C08BE390E02FEFFC01208323C087E390E0D3
S11300D02FEFFC01208388E390E02FEFFC012083C5
S11300E018C084E390E02FEFFC01208385E390E0C7
S11300F02FEFFC0120830DC084E390E02FEFFC017F
S1130100208385E390E02FEFFC012083000001C0F1
S113011000000F90DF91CF910895CF93DF9300D02B
S1130120CDB7DEB78A838A818830A8F48A81282FE4
S113013030E081E090E002C0880F991F2A95E2F731
S1130140898385E390E025E330E0F901308129815A
S11301502327FC0120830F900F90DF91CF91089506
S1130160CF93DF93CDB7DEB7CC54D1090FB6F89453
S1130170DEBF0FBECDBF48E060E875E280E090E0EE
S11301800E94390361E082E40E9436020E94410029
S113019080E690E00E9467041A8219820EC09E01D4
S11301A02F5E3F4F89819A81820F931FFC01108239
S11301B089819A8101969A83898389819A81C297D8
S11301C070F3CE0141960E940802CE018D5B9F4FD1
S11301D00E94640184EF91E00E94700287E00E9413
S11301E08D0080E090E0AAEFB3E48B839C83AD8321
S11301F0BE8326E636E646E654E46B817C818D8137
S11302009E810E94C405DC01CB018F839887A98756
S1130210BA8720E030E040E85FE36F817885898524
S11302209A850E94010588232CF481E090E09C8744
S11302308B873FC020E03FEF4FE757E46F8178851D
S113024089859A850E94BF0518164CF520E030E098
S113025040E251E46B817C818D819E810E94C405C2
S1130260DC01CB01BC01CD010E940605DC01CB0100
S11302709C878B870FC08CE590E09E878D878D854A
S11302809E850197F1F79E878D878B859C850197C5
S11302909C878B878B859C85892B69F714C06F811C
S11302A0788589859A850E940605DC01CB019C87A7
S11302B08B878B859C85988B8F878F8598890197F1
S11302C0F1F7988B8F878ACFCF93DF93CDB7DEB7C3
S11302D063970FB6F894DEBF0FBECDBF9B8B8A8B9E
S11302E01A82198283E790E00E94670483C080E049
S11302F090E0A8E4B2E48C839D83AE83BF8320E0C6
S113030030E04AE753E46C817D818E819F810E94B5
S1130310C405DC01CB0188879987AA87BB8720E0C5
S113032030E040E85FE3688579858A859B850E9493
S1130330010588232CF481E090E09D878C873FC0E1
S113034020E03FEF4FE757E4688579858A859B85F0
S11303500E94BF0518164CF520E030E040E251E45D
S11303606C817D818E819F810E94C405DC01CB015B
S1130370BC01CD010E940605DC01CB019D878C8761
S11303800FC089E190E09F878E878E859F850197B6
S1130390F1F79F878E878C859D8501979D878C8734
S11303A08C859D85892B69F714C0688579858A8534
S11303B09B850E940605DC01CB019D878C878C857B
S11303C09D85998B888B888999890197F1F7998BF9
S11303D0888B0E94BF038B832A893B8989819A81F8
S11303E0820F931F2B81FC01208389819A810196BE
S11303F09A8389830E94B303892B09F078CF63968B
S11304000FB6F894DEBF0FBECDBFDF91CF91089534
S11304100F931F93CF93DF9300D000D0CDB7DEB7F7
S11304209C838B831A8219828AE790E00E94670476
S113043010C02B813C8189819A818901080F191F81
S11304400E94BF03F801808389819A8101969A836F
S113045089830E94B303892B61F70F900F900F904B
S11304600F90DF91CF911F910F910895CF93DF9358
S113047000D0CDB7DEB789836A838981882F90E065
S113048082349105A1F08334910524F481349105DB
S113049041F019C08334910581F084349105D1F081
S11304A012C08AE390E02A81FC01208314C087E310
S11304B090E02A81FC0120830EC084E390E02A812D
S11304C0FC01208308C087E390E02A81FC0120839B
S11304D0000001C000000F900F90DF91CF910895AC
S11304E0CF93DF93CDB7DEB76C970FB6F894DEBF2A
S11304F00FBECDBF9A8F898F88EE93E0298D3A8DF8
S1130500B9010E945906CB019E838D8384E690E055
S113051098878F8382E090E09A8789871A8219826C
S113052097C01C821B8287C088E390E028E330E0F8
S1130530F90120812095FC0120838D819E81CC01CD
S1130540A0E0B0E0BC01CD010E943505DC01CB0187
S11305508B879C87AD87BE8726E636E646E654E45D
S11305606B857C858D859E850E94C405DC01CB014D
S11305708F87988BA98BBA8B20E030E040E85FE34B
S11305806F85788989899A890E94010588232CF4CA
S113059081E090E09C8B8B8B3FC020E03FEF4FE7E6
S11305A057E46F85788989899A890E94BF0518164E
S11305B04CF520E030E040E251E46B857C858D858C
S11305C09E850E94C405DC01CB01BC01CD010E94C3
S11305D00605DC01CB019C8B8B8B0FC08CE590E076
S11305E09E8B8D8B8D899E890197F1F79E8B8D8BC8
S11305F08B899C8901979C8B8B8B8B899C89892BFC
S113060069F714C06F85788989899A890E940605DB
S1130610DC01CB019C8B8B8B8B899C89988F8F8B76
S11306208F89988D0197F1F7988F8F8B8B819C819F
S113063001969C838B832B813C8189859A8528171D
S1130640390708F471CF89819A8101969A83898345
S113065029813A818F8198852817390708F461CF59
S11306606C960FB6F894DEBF0FBECDBFDF91CF916D
S11306700895CF93DF93CDB7DEB72B970FB6F894D9
S1130680DEBF0FBECDBF6B837C838D839E834F8380
S11306908B819C81AD81BE818E369105A105B1050A
S11306A008F458C08B819C81AD81BE818130924C0D
S11306B0A140B10508F04EC08F81853008F44AC0CE
S11306C08F81893008F046C08BE290E020E2FC0183
S11306D020838AE290E028E1FC01208380E490E01A
S11306E02F81222F30E025503109220F331F20683B
S11306F0FC0120838B819C81AD81BE81880F991F71
S1130700AA1FBB1F880F991FAA1FBB1F880F991F01
S1130710AA1FBB1F880F991FAA1FBB1F9C01AD01F5
S113072080E090E4A8E3B0E0BC01CD010E946D0636
S1130730DA01C90101979A83898380E490E02981D1
S11307403A81232F3327FC01208389E290E0298119
S1130750FC0120832B960FB6F894DEBF0FBECDBFED
S1130760DF91CF910895CF93DF93CDB7DEB78BE2BE
S113077090E0FC0180818078DF91CF910895CF9340
S1130780DF93CDB7DEB700008BE290E0FC018081FF
S11307908823D4F78CE290E0FC018081DF91CF9133
S11307A00895CF93DF93CDB7DEB72F970FB6F894A4
S11307B0DEBF0FBECDBF8F8780E090E0A8E4B2E437
S11307C089839A83AB83BC8326E636E646E654E403
S11307D069817A818B819C810E94C405DC01CB01F3
S11307E08D839E83AF83B88720E030E040E85FE3E9
S11307F06D817E818F8198850E94010588232CF468
S113080081E090E09A8789873FC020E03FEF4FE77F
S113081057E46D817E818F8198850E94BF051816EB
S11308204CF520E030E040E251E469817A818B812B
S11308309C810E94C405DC01CB01BC01CD010E9456
S11308400605DC01CB019A8789870FC08CE590E00F
S11308509C878B878B859C850197F1F79C878B8779
S113086089859A8501979A87898789859A85892BAD
S113087069F714C06D817E818F8198850E94060579
S1130880DC01CB019A87898789859A859E878D8724
S11308908D859E850197F1F79E878D8700008BE2F9
S11308A090E0FC018081882F90E080729927892B49
S11308B0B1F38CE290E02F85FC0120832F960FB6D4
S11308C0F894DEBF0FBECDBFDF91CF910895CF93D3
S11308D0DF93CDB7DEB760970FB6F894DEBF0FBED7
S11308E0CDBF988B8F877DC08F859889FC018081CF
S11308F00E94D1038F8598890196988B8F8780E019
S113090090E0A8E4B2E489839A83AB83BC8326E6AF
S113091036E646E654E469817A818B819C810E94A3
S1130920C405DC01CB018D839E83AF83B88720E0AF
S113093030E040E85FE36D817E818F8198850E947D
S1130940010588232CF481E090E09A8789873FC0D1
S113095020E03FEF4FE757E46D817E818F819885DA
S11309600E94BF0518164CF520E030E040E251E447
S113097069817A818B819C810E94C405DC01CB0151
S1130980BC01CD010E940605DC01CB019A87898751
S11309900FC08CE590E09C878B878B859C850197A5
S11309A0F1F79C878B8789859A8501979A87898730
S11309B089859A85892B69F714C06D817E818F8121
S11309C098850E940605DC01CB019A878987898571
S11309D09A859E878D878D859E850197F1F79E87E1
S11309E08D878F859889FC018081882309F07CCFCD
S11309F060960FB6F894DEBF0FBECDBFDF91CF91E6
S1130A0008950E94720508F481E008950E949E05ED
S1130A1088F09F5798F0B92F9927B751B0F0E1F0BB
S1130A20660F771F881F991F1AF0BA95C9F714C06B
S1130A30B13091F00E94B805B1E008950C94B80566
S1130A40672F782F8827B85F39F0B93FCCF38695A4
S1130A5077956795B395D9F73EF490958095709501
S1130A6061957F4F8F4F9F4F0895E89409C097FB7E
S1130A703EF490958095709561957F4F8F4F9F4F71
S1130A809923A9F0F92F96E9BB279395F6958795B5
S1130A9077956795B795F111F8CFFAF4BB0F11F478
S1130AA060FF1BC06F5F7F4F8F4F9F4F16C088231F
S1130AB011F096E911C0772321F09EE8872F762F55
S1130AC005C0662371F096E8862F70E060E02AF096
S1130AD09A95660F771F881FDAF7880F9695879582
S1130AE097F90895990F0008550FAA0BE0E8FEEF57
S1130AF016161706E807F907C0F012161306E407DE
S1130B00F50798F0621B730B840B950B39F40A26D6
S1130B1061F0232B242B252B21F408950A2609F4B4
S1130B20A140A6958FEF811D811D089557FD905812
S1130B30440F551F59F05F3F71F04795880F97FB9D
S1130B40991F61F09F3F79F0879508951216130657
S1130B501406551FF2CF4695F1DF08C01616170686
S1130B601806991FF1CF86957105610508940895BB
S1130B70E894BB2766277727CB0197F908950E944D
S1130B80720508F48FEF08950E94D7050C94480667
S1130B900E943A0638F00E94410620F0952311F095
S1130BA00C9431060C94370611240C94B9050E9458
S1130BB0960570F3959FC1F3950F50E0551F629F02
S1130BC0F001729FBB27F00DB11D639FAA27F00DA2
S1130BD0B11DAA1F649F6627B00DA11D661F829FC9
S1130BE02227B00DA11D621F739FB00DA11D621FAE
S1130BF0839FA00D611D221F749F3327A00D611DCB
S1130C00231F849F600D211D822F762F6A2F1124AC
S1130C109F5750409AF0F1F088234AF0EE0FFF1FDF
S1130C20BB1F661F771F881F91505040A9F79E3F36
S1130C30510580F00C9431060C94B9055F3FE4F340
S1130C40983ED4F3869577956795B795F795E7958C
S1130C509F5FC1F7FE2B880F911D9695879597F995
S1130C60089597F99F6780E870E060E008959FEF2A
S1130C7080EC089500240A9416161706180609062F
S1130C80089500240A9412161306140605060895FE
S1130C90092E0394000C11F4882352F0BB0F40F486
S1130CA0BF2B11F460FF04C06F5F7F4F8F4F9F4FC6
S1130CB00895AA1BBB1B51E107C0AA1FBB1FA6179F
S1130CC0B70710F0A61BB70B881F991F5A95A9F7F1
S1130CD080959095BC01CD010895A1E21A2EAA1B1E
S1130CE0BB1BFD010DC0AA1FBB1FEE1FFF1FA217D8
S1130CF0B307E407F50720F0A21BB30BE40BF50BD5
S1130D00661F771F881F991F1A9469F7609570955D
S1130D10809590959B01AC01BD01CF010895F89495
S1050D20FFCFFF
S1130D2241542646310041542B434D47463D310040
S1130D320D0A00415445310D0A00415445300D0A53
S1130D420041542B434D47533D0041542B434D47DF
S10B0D524C3D414C4C0D0A001C
S9030000FC
