S00F000047736D44656D6F2E7372656369
S11300000C942A000C9447000C9447000C9447006D
S11300100C9447000C9447000C9447000C94470040
S11300200C9447000C9447000C9447000C94470030
S11300300C9447000C9449000C9447000C9447001E
S11300400C9447000C9447000C9447000C94470010
S11300500C94470011241FBECFE5D8E0DEBFCDBF0E
S113006010E0A0E6B0E0EAE2F5E002C005900D92EF
S1130070AC38B107D9F720E0ACE8B0E001C01D927C
S1130080A13CB207E1F70E947E000C9493020C9409
S113009000001F920F9200905F000F9211242F9383
S11300A08F939F93EF93FF93CF93DF93CDB7DEB7F7
S11300B08CE290E0FC0180818093C00080918C00F0
S11300C090918D002091C00082579F4FFC012083A6
S11300D080918C0090918D00019690938D00809377
S11300E08C00DF91CF91FF91EF919F918F912F9190
S11300F00F9000925F000F901F901895CF93DF939D
S1130100CDB7DEB72E970FB6F894DEBF0FBECDBFC6
S11301100E940F0178940E94000180E090E0AAEF11
S1130120B4E489839A83AB83BC8326E636E646E649
S113013054E469817A818B819C810E94FE01DC01F7
S1130140CB018D839E83AF83B88720E030E040E805
S11301505FE36D817E818F8198850E947801882379
S11301602CF481E090E09A8789873FC020E03FEF3C
S11301704FE757E46D817E818F8198850E94F90154
S113018018164CF520E030E040E251E469817A81B0
S11301908B819C810E94FE01DC01CB01BC01CD015D
S11301A00E947D01DC01CB019A8789870FC08CE511
S11301B090E09C878B878B859C850197F1F79C87C2
S11301C08B8789859A8501979A87898789859A85F6
S11301D0892B69F714C06D817E818F8198850E9477
S11301E07D01DC01CB019A87898789859A859E8761
S11301F08D878D859E850197F1F79E878D878BCF9F
S1130200CF93DF93CDB7DEB78FE790E00E94400134
S11302108AE690E00E944001DF91CF910895CF9348
S1130220DF9300D000D0CDB7DEB79C838B831A82D6
S113023019820DC089819A812B813C81820F931F81
S1130240FC01108289819A8101969A83898389812C
S11302509A81C2977CF389E290E027E1FC01208334
S113026080E490E0FC0110828AE290E028E9FC013D
S113027020830F900F900F900F90DF91CF910895EE
S1130280CF93DF9300D0CDB7DEB79A8389830BC0B9
S113029089819A81FC0180810E945E0189819A8111
S11302A001969A83898389819A81FC0180818823BC
S11302B079F70F900F90DF91CF910895CF93DF934B
S11302C01F92CDB7DEB7898300008BE290E0FC017A
S11302D08081882F90E080729927892BB1F38CE27A
S11302E090E02981FC0120830F90DF91CF91089544
S11302F00E94AC0108F481E008950E94D80188F0BE
S11303009F5798F0B92F9927B751B0F0E1F0660FD5
S1130310771F881F991F1AF0BA95C9F714C0B13016
S113032091F00E94F201B1E008950C94F201672F5C
S1130330782F8827B85F39F0B93FCCF38695779545
S11303406795B395D9F73EF490958095709561952E
S11303507F4F8F4F9F4F0895990F0008550FAA0B99
S1130360E0E8FEEF16161706E807F907C0F01216C4
S11303701306E407F50798F0621B730B840B950BC7
S113038039F40A2661F0232B242B252B21F408951C
S11303900A2609F4A140A6958FEF811D811D0895B9
S11303A057FD9058440F551F59F05F3F71F0479522
S11303B0880F97FB991F61F09F3F79F08795089507
S11303C0121613061406551FF2CF4695F1DF08C026
S11303D0161617061806991FF1CF86957105610543
S11303E008940895E894BB2766277727CB0197F9EB
S11303F008950E94AC0108F48FEF08950E94110241
S11304000C9482020E94740238F00E947B0220F055
S1130410952311F00C946B020C94710211240C942A
S1130420F3010E94D00170F3959FC1F3950F50E042
S1130430551F629FF001729FBB27F00DB11D639F92
S1130440AA27F00DB11DAA1F649F6627B00DA11D38
S1130450661F829F2227B00DA11D621F739FB00DDE
S1130460A11D621F839FA00D611D221F749F33274E
S1130470A00D611D231F849F600D211D822F762FE7
S11304806A2F11249F5750409AF0F1F088234AF0C4
S1130490EE0FFF1FBB1F661F771F881F9150504030
S11304A0A9F79E3F510580F00C946B020C94F30164
S11304B05F3FE4F3983ED4F3869577956795B795B7
S11304C0F795E7959F5FC1F7FE2B880F911D9695D1
S11304D0879597F9089597F99F6780E870E060E041
S11304E008959FEF80EC089500240A9416161706C9
S11304F018060906089500240A9412161306140611
S113050005060895092E0394000C11F4882352F073
S1130510BB0F40F4BF2B11F460FF04C06F5F7F4F2B
S10D05208F4F9F4F0895F894FFCF0A
S113052A41542B434D47463D31000D00415445315A
S113053A00415445300041542B434D47533D00413B
S10F054A542B434D474C3D414C4C0000E9
S9030000FC
