S00F000047736D44656D6F2E7372656369
S11300000C942A000C943F000C943F000C943F0085
S11300100C943F000C943F000C943F000C943F0060
S11300200C943F000C943F000C943F000C943F0050
S11300300C943F000C943F000C943F000C943F0040
S11300400C943F000C943F000C943F000C943F0030
S11300500C943F0011241FBECFE5D8E0DEBFCDBF16
S113006010E0A0E6B0E0E6E7F2E002C005900D92F1
S1130070A03CB107D9F70E945C000C9439010C94A0
S11300800000823469F018F4813431F011C08334F3
S113009059F0843481F00CC08FEF8ABB8BBB089578
S11300A08FEF87BB88BB08958FEF84BB85BB089512
S11300B08FEF84BB85BB0895CF93DF93CDB7DEB7B5
S11300C0EE970FB6F894DEBF0FBECDBF48E060E8F0
S11300D075E280E090E00E94BB000E94410083E151
S11300E0E0E6F0E0DE01119601900D928A95E1F7C9
S11300F0FE0174968FE1DF011D928A95E9F789E08C
S1130100E2E9F0E0DE01D39601900D928A95E1F7E1
S11301101CAE1DAE1EAEBE016D5C7F4FCE010196BE
S11301200E949C00FFCF8EE990E00E94020188EAC1
S113013090E00E94020108950F931F93CF93DF93E1
S1130140EC018B010E9493008BEA90E00E94020173
S1130150C8010E94020188EA90E00E940201CE01D7
S11301600E9402018AE190E00E94F800DF91CF91A1
S11301701F910F9108950F931F938B019C010E56AD
S11301801109210931090339114C2140310568F560
S11301902BEF240F243048F520E22BB928E12AB9AB
S11301A050E045505109440F551F406840BDDC01E3
S11301B0CB01880F991FAA1FBB1F880F991FAA1F65
S11301C0BB1F9C01AD01220F331F441F551F220F7B
S11301D0331F441F551F60E070E488E390E00E94E1
S11301E017012150310930BD29B91F910F9108958C
S11301F0EFEFF3EB3197F1F700C000005D9BFECF0A
S11302008CB90895CF93DF93EC018881882361F042
S113021021960E94F8008FEF93EB0197F1F700C04D
S1130220000089918111F5CFDF91CF910895A1E26A
S11302301A2EAA1BBB1BFD010DC0AA1FBB1FEE1F5C
S1130240FF1FA217B307E407F50720F0A21BB30BA7
S1130250E40BF50B661F771F881F991F1A9469F723
S113026060957095809590959B01AC01BD01CF017F
S10902700895F894FFCF8D
S1130276546869732069732061206D6573736167BF
S113028665200000000000000000000000000000DF
S11302960000000000000000000000000000000054
S11302A60000323434363431303500000000415415
S11302B62B434D47463D31000D0A0041542B434D17
S11302C647533D0041542B434D474C3D414C4C0054
S9030000FC
