S00F000047736D44656D6F2E7372656369
S11300000C942A000C943F000C943F000C943F0085
S11300100C943F000C943F000C943F000C943F0060
S11300200C943F000C943F000C943F000C943F0050
S11300300C943F000C943F000C943F000C943F0040
S11300400C943F000C943F000C943F000C943F0030
S11300500C943F0011241FBECFE5D8E0DEBFCDBF16
S113006010E0A0E6B0E0EEEDFAE002C005900D92DB
S1130070A83CB107D9F70E94B0000C946D050C940C
S11300800000CF93DF931F92CDB7DEB789838981B8
S1130090882F90E082349105C9F08334910524F4CB
S11300A08134910541F028C083349105D1F0843422
S11300B0910571F121C08AE390E02FEFFC012083C8
S11300C08BE390E02FEFFC01208323C087E390E0D3
S11300D02FEFFC01208388E390E02FEFFC012083C5
S11300E018C084E390E02FEFFC01208385E390E0C7
S11300F02FEFFC0120830DC084E390E02FEFFC017F
S1130100208385E390E02FEFFC012083000001C0F1
S113011000000F90DF91CF910895CF93DF9300D02B
S1130120CDB7DEB78A838A818830A8F48A81282FE4
S113013030E081E090E002C0880F991F2A95E2F731
S1130140898385E390E025E330E0F901308129815A
S11301502327FC0120830F900F90DF91CF91089506
S1130160CF93DF93CDB7DEB7CE57D1090FB6F8944E
S1130170DEBF0FBECDBF48E060E875E280E090E0EE
S11301800E9468020E9441008BE1E0E6F0E0DE019B
S1130190AF5BBF4F01900D928A95E1F7CE01845A6F
S11301A09F4F27E1FC01322F11923A95E9F7CE01D6
S11301B08D589F4F29E0E2E9F0E0DC0101900D92B7
S11301C02A95E1F7FC011186128613869E012D58AB
S11301D03F4FCE018F5B9F4FB9010E949601CE0124
S11301E00F960E94BD019E012D583F4FCE010F96E0
S11301F0B9010E94960187E00E948D0080E090E0A2
S1130200AAEFB3E489839A83AB83BC8326E636E6FC
S113021046E654E469817A818B819C810E94B6040C
S1130220DC01CB018D839E83AF83B88720E030E06F
S113023040E85FE36D817E818F8198850E94300460
S113024088232CF481E090E09A8789873FC020E0DE
S11302503FEF4FE757E46D817E818F8198850E943F
S1130260B10418164CF520E030E040E251E4698115
S11302707A818B819C810E94B604DC01CB01BC0194
S1130280CD010E943504DC01CB019A8789870FC018
S11302908CE590E09C878B878B859C850197F1F793
S11302A09C878B8789859A8501979A878987898511
S11302B09A85892B69F714C06D817E818F81988519
S11302C00E943504DC01CB019A87898789859A8548
S11302D09E878D878D859E850197F1F79E878D87F3
S11302E08ACFCF93DF93CDB7DEB78EE990E00E943B
S11302F0960388EA90E00E949603DF91CF910895D7
S1130300CF93DF93CDB7DEB78BEA90E00E949603DC
S1130310DF91CF910895CF93DF93CDB7DEB780EB14
S113032090E00E949603DF91CF910895CF93DF93DD
S113033000D000D0CDB7DEB79A8389837C836B83EA
S11303400E94710185EB90E00E9496038B819C8151
S11303500E94960388EA90E00E94960389819A811C
S11303600E9496038AE190E00E9400030F900F9090
S11303700F900F90DF91CF9108950F931F93CF9318
S1130380DF93CDB7DEB762970FB6F894DEBF0FBE2A
S1130390CDBF9A8B898B0E948B018EEB90E00E94DB
S11303A096031A82198282C080E090E0A8ECB2E43D
S11303B08B839C83AD83BE8320E030E04AE753E423
S11303C06B817C818D819E810E94B604DC01CB010E
S11303D08F839887A987BA8720E030E040E85FE3FD
S11303E06F81788589859A850E94300488232CF44E
S11303F081E090E09C878B873FC020E03FEF4FE790
S113040057E46F81788589859A850E94B10418160E
S11304104CF520E030E040E251E46B817C818D8139
S11304209E810E94B604DC01CB01BC01CD010E9477
S11304303504DC01CB019C878B870FC089E190E0F8
S11304409E878D878D859E850197F1F79E878D8781
S11304508B859C8501979C878B878B859C85892BB5
S113046069F714C06F81788589859A850E9435045F
S1130470DC01CB019C878B878B859C85988B8F8730
S11304808F8598890197F1F7988B8F8729893A8905
S113049089819A818901080F191F0E94EE02F801CF
S11304A0808389819A8101969A8389830E94E202DA
S11304B0892B09F079CF0E94800162960FB6F894D7
S11304C0DEBF0FBECDBFDF91CF911F910F91089575
S11304D0CF93DF93CDB7DEB72B970FB6F894DEBF7B
S11304E00FBECDBF6B837C838D839E834F838B81B3
S11304F09C81AD81BE818E369105A105B10508F4BC
S113050058C08B819C81AD81BE818130924CA140C9
S1130510B10508F04EC08F81853008F44AC08F8140
S1130520893008F046C08BE290E020E2FC01208391
S11305308AE290E028E1FC01208380E490E02F81AE
S1130540222F30E025503109220F331F2068FC018F
S113055020838B819C81AD81BE81880F991FAA1F46
S1130560BB1F880F991FAA1FBB1F880F991FAA1FA3
S1130570BB1F880F991FAA1FBB1F9C01AD0180E000
S113058090E4A8E3B0E0BC01CD010E944B05DA0180
S1130590C90101979A83898380E490E029813A8193
S11305A0232F3327FC01208389E290E02981FC0179
S11305B020832B960FB6F894DEBF0FBECDBFDF911C
S11305C0CF910895CF93DF93CDB7DEB78BE290E060
S11305D0FC0180818078DF91CF910895CF93DF93E0
S11305E0CDB7DEB700008BE290E0FC018081882368
S11305F0D4F78CE290E0FC018081DF91CF910895E3
S1130600CF93DF93CDB7DEB72F970FB6F894DEBF45
S11306100FBECDBF8F8780E090E0A8E4B2E4898369
S11306209A83AB83BC8326E636E646E654E46981C6
S11306307A818B819C810E94B604DC01CB018D837D
S11306409E83AF83B88720E030E040E85FE36D81AC
S11306507E818F8198850E94300488232CF481E068
S113066090E09A8789873FC020E03FEF4FE757E447
S11306706D817E818F8198850E94B10418164CF596
S113068020E030E040E251E469817A818B819C81F1
S11306900E94B604DC01CB01BC01CD010E943504EB
S11306A0DC01CB019A8789870FC08CE590E09C8799
S11306B08B878B859C850197F1F79C878B87898530
S11306C09A8501979A87898789859A85892B69F7FD
S11306D014C06D817E818F8198850E943504DC0170
S11306E0CB019A87898789859A859E878D878D8591
S11306F09E850197F1F79E878D8700008BE290E03D
S1130700FC018081882F90E080729927892BB1F3B6
S11307108CE290E02F85FC0120832F960FB6F8948D
S1130720DEBF0FBECDBFDF91CF910895CF93DF938E
S1130730CDB7DEB760970FB6F894DEBF0FBECDBF5E
S1130740988B8F877DC08F859889FC0180810E945A
S113075000038F8598890196988B8F8780E090E0BD
S1130760A8E4B2E489839A83AB83BC8326E636E6A5
S113077046E654E469817A818B819C810E94B604A7
S1130780DC01CB018D839E83AF83B88720E030E00A
S113079040E85FE36D817E818F8198850E943004FB
S11307A088232CF481E090E09A8789873FC020E079
S11307B03FEF4FE757E46D817E818F8198850E94DA
S11307C0B10418164CF520E030E040E251E46981B0
S11307D07A818B819C810E94B604DC01CB01BC012F
S11307E0CD010E943504DC01CB019A8789870FC0B3
S11307F08CE590E09C878B878B859C850197F1F72E
S11308009C878B8789859A8501979A8789878985AB
S11308109A85892B69F714C06D817E818F819885B3
S11308200E943504DC01CB019A87898789859A85E2
S11308309E878D878D859E850197F1F79E878D878D
S11308408F859889FC018081882309F07CCF60968C
S11308500FB6F894DEBF0FBECDBFDF91CF910895E0
S11308600E94640408F481E008950E94900488F0D2
S11308709F5798F0B92F9927B751B0F0E1F0660F60
S1130880771F881F991F1AF0BA95C9F714C0B130A1
S113089091F00E94AA04B1E008950C94AA04672F71
S11308A0782F8827B85F39F0B93FCCF386957795D0
S11308B06795B395D9F73EF49095809570956195B9
S11308C07F4F8F4F9F4F0895990F0008550FAA0B24
S11308D0E0E8FEEF16161706E807F907C0F012164F
S11308E01306E407F50798F0621B730B840B950B52
S11308F039F40A2661F0232B242B252B21F40895A7
S11309000A2609F4A140A6958FEF811D811D089543
S113091057FD9058440F551F59F05F3F71F04795AC
S1130920880F97FB991F61F09F3F79F08795089591
S1130930121613061406551FF2CF4695F1DF08C0B0
S1130940161617061806991FF1CF869571056105CD
S113095008940895E894BB2766277727CB0197F975
S113096008950E94640408F48FEF08950E94C90456
S11309700C943A050E942C0538F00E94330520F0AF
S1130980952311F00C9423050C94290511240C943F
S1130990AB040E94880470F3959FC1F3950F50E057
S11309A0551F629FF001729FBB27F00DB11D639F1D
S11309B0AA27F00DB11DAA1F649F6627B00DA11DC3
S11309C0661F829F2227B00DA11D621F739FB00D69
S11309D0A11D621F839FA00D611D221F749F3327D9
S11309E0A00D611D231F849F600D211D822F762F72
S11309F06A2F11249F5750409AF0F1F088234AF04F
S1130A00EE0FFF1FBB1F661F771F881F91505040BA
S1130A10A9F79E3F510580F00C9423050C94AB0478
S1130A205F3FE4F3983ED4F3869577956795B79541
S1130A30F795E7959F5FC1F7FE2B880F911D96955B
S1130A40879597F9089597F99F6780E870E060E0CB
S1130A5008959FEF80EC089500240A941616170653
S1130A6018060906089500240A941216130614069B
S1130A7005060895092E0394000C11F4882352F0FE
S1130A80BB0F40F4BF2B11F460FF04C06F5F7F4FB6
S1130A908F4F9F4F0895A1E21A2EAA1BBB1BFD0185
S1130AA00DC0AA1FBB1FEE1FFF1FA217B307E40749
S1130AB0F50720F0A21BB30BE40BF50B661F771FA1
S1130AC0881F991F1A9469F7609570958095909581
S1110AD09B01AC01BD01CF010895F894FFCF46
S1130ADE546869732069732061206D65737361674F
S1130AEE6520666F7220796F75200000000000008B
S1130AFE00000000000000000000000000000000E4
S1130B0E00003234343634313035000000004154A4
S1130B1E2B434D47463D31000D0A004154453100EB
S1130B2E415445300041542B434D47533D004154ED
S10B0B3E2B434D474C3D3100EF
S9030000FC
