S012000068656C6C6F776F726C642E73726563D6
S11300000C942A000C9434000C9434000C943400A6
S11300100C9434000C9434000C9434000C9434008C
S11300200C9434000C9434000C9434000C9434007C
S11300300C9434000C9434000C9434000C9434006C
S11300400C9434000C9434000C9434000C9434005C
S11300500C94340011241FBECFE5D8E0DEBFCDBF21
S11300600E9436000C944A000C9400001ABA8FEFD8
S113007087BB01C0815088BB2FEF3FE995E0215039
S113008030409040E1F700C00000CF99F3CF0C94CA
S10B0090001EF0CFF894FFCF2D
S9030000FC
